{
	"test1.sol": {
		"Greeter": {
			"abi": [
				{
					"inputs": [],
					"stateMutability": "nonpayable",
					"type": "constructor"
				},
				{
					"inputs": [
						{
							"internalType": "uint256",
							"name": "_deadline",
							"type": "uint256"
						},
						{
							"internalType": "uint256",
							"name": "_id",
							"type": "uint256"
						},
						{
							"internalType": "string",
							"name": "_name",
							"type": "string"
						}
					],
					"name": "createProject",
					"outputs": [],
					"stateMutability": "nonpayable",
					"type": "function"
				},
				{
					"inputs": [
						{
							"internalType": "uint256",
							"name": "_projectId",
							"type": "uint256"
						},
						{
							"internalType": "uint256",
							"name": "_additionalSeconds",
							"type": "uint256"
						}
					],
					"name": "enhanceDeadline",
					"outputs": [],
					"stateMutability": "nonpayable",
					"type": "function"
				},
				{
					"inputs": [
						{
							"internalType": "uint256",
							"name": "_projectId",
							"type": "uint256"
						}
					],
					"name": "fundProject",
					"outputs": [],
					"stateMutability": "payable",
					"type": "function"
				},
				{
					"inputs": [],
					"name": "getFailedProjects",
					"outputs": [
						{
							"internalType": "uint256",
							"name": "",
							"type": "uint256"
						}
					],
					"stateMutability": "view",
					"type": "function"
				},
				{
					"inputs": [
						{
							"internalType": "uint256",
							"name": "_projectId",
							"type": "uint256"
						}
					],
					"name": "getRemainingTime",
					"outputs": [
						{
							"internalType": "uint256",
							"name": "",
							"type": "uint256"
						}
					],
					"stateMutability": "view",
					"type": "function"
				},
				{
					"inputs": [],
					"name": "getSuccessfulProjects",
					"outputs": [
						{
							"internalType": "uint256",
							"name": "",
							"type": "uint256"
						}
					],
					"stateMutability": "view",
					"type": "function"
				},
				{
					"inputs": [
						{
							"internalType": "uint256",
							"name": "",
							"type": "uint256"
						}
					],
					"name": "projects",
					"outputs": [
						{
							"internalType": "string",
							"name": "name",
							"type": "string"
						},
						{
							"internalType": "uint256",
							"name": "deadline",
							"type": "uint256"
						},
						{
							"internalType": "uint256",
							"name": "amountRaised",
							"type": "uint256"
						},
						{
							"internalType": "bool",
							"name": "funded",
							"type": "bool"
						}
					],
					"stateMutability": "view",
					"type": "function"
				},
				{
					"inputs": [],
					"name": "systemCommission",
					"outputs": [
						{
							"internalType": "uint256",
							"name": "",
							"type": "uint256"
						}
					],
					"stateMutability": "view",
					"type": "function"
				},
				{
					"inputs": [],
					"name": "totalFailedProjects",
					"outputs": [
						{
							"internalType": "uint256",
							"name": "",
							"type": "uint256"
						}
					],
					"stateMutability": "view",
					"type": "function"
				},
				{
					"inputs": [],
					"name": "totalFundedProjects",
					"outputs": [
						{
							"internalType": "uint256",
							"name": "",
							"type": "uint256"
						}
					],
					"stateMutability": "view",
					"type": "function"
				},
				{
					"inputs": [],
					"name": "totalProjects",
					"outputs": [
						{
							"internalType": "uint256",
							"name": "",
							"type": "uint256"
						}
					],
					"stateMutability": "view",
					"type": "function"
				},
				{
					"inputs": [],
					"name": "withdrawCommission",
					"outputs": [],
					"stateMutability": "nonpayable",
					"type": "function"
				}
			],
			"devdoc": {
				"kind": "dev",
				"methods": {},
				"version": 1
			},
			"evm": {
				"assembly": "    /* \"test1.sol\":66:3444  contract Greeter {... */\n  mstore(0x40, 0x80)\n    /* \"test1.sol\":662:811  constructor() {... */\n  callvalue\n  dup1\n  iszero\n  tag_1\n  jumpi\n  0x00\n  dup1\n  revert\ntag_1:\n  pop\n    /* \"test1.sol\":703:704  0 */\n  0x00\n    /* \"test1.sol\":687:700  totalProjects */\n  0x01\n    /* \"test1.sol\":687:704  totalProjects = 0 */\n  dup2\n  swap1\n  sstore\n  pop\n    /* \"test1.sol\":737:738  0 */\n  0x00\n    /* \"test1.sol\":715:734  totalFundedProjects */\n  0x02\n    /* \"test1.sol\":715:738  totalFundedProjects = 0 */\n  dup2\n  swap1\n  sstore\n  pop\n    /* \"test1.sol\":771:772  0 */\n  0x00\n    /* \"test1.sol\":749:768  totalFailedProjects */\n  0x03\n    /* \"test1.sol\":749:772  totalFailedProjects = 0 */\n  dup2\n  swap1\n  sstore\n  pop\n    /* \"test1.sol\":802:803  0 */\n  0x00\n    /* \"test1.sol\":783:799  systemCommission */\n  0x04\n    /* \"test1.sol\":783:803  systemCommission = 0 */\n  dup2\n  swap1\n  sstore\n  pop\n    /* \"test1.sol\":66:3444  contract Greeter {... */\n  dataSize(sub_0)\n  dup1\n  dataOffset(sub_0)\n  0x00\n  codecopy\n  0x00\n  return\nstop\n\nsub_0: assembly {\n        /* \"test1.sol\":66:3444  contract Greeter {... */\n      mstore(0x40, 0x80)\n      jumpi(tag_1, lt(calldatasize, 0x04))\n      shr(0xe0, calldataload(0x00))\n      dup1\n      0x5b0e22dd\n      gt\n      tag_14\n      jumpi\n      dup1\n      0x5b0e22dd\n      eq\n      tag_8\n      jumpi\n      dup1\n      0x6c563abe\n      eq\n      tag_9\n      jumpi\n      dup1\n      0x7cc21e0a\n      eq\n      tag_10\n      jumpi\n      dup1\n      0x9c361e4e\n      eq\n      tag_11\n      jumpi\n      dup1\n      0xc49f597b\n      eq\n      tag_12\n      jumpi\n      dup1\n      0xf1d5597c\n      eq\n      tag_13\n      jumpi\n      jump(tag_1)\n    tag_14:\n      dup1\n      0x107046bd\n      eq\n      tag_2\n      jumpi\n      dup1\n      0x1124acf4\n      eq\n      tag_3\n      jumpi\n      dup1\n      0x181e0124\n      eq\n      tag_4\n      jumpi\n      dup1\n      0x20f7a505\n      eq\n      tag_5\n      jumpi\n      dup1\n      0x2a661dac\n      eq\n      tag_6\n      jumpi\n      dup1\n      0x3e25e837\n      eq\n      tag_7\n      jumpi\n    tag_1:\n      0x00\n      dup1\n      revert\n        /* \"test1.sol\":292:332  mapping(uint => Project) public projects */\n    tag_2:\n      callvalue\n      dup1\n      iszero\n      tag_15\n      jumpi\n      0x00\n      dup1\n      revert\n    tag_15:\n      pop\n      tag_16\n      0x04\n      dup1\n      calldatasize\n      sub\n      dup2\n      add\n      swap1\n      tag_17\n      swap2\n      swap1\n      tag_18\n      jump\t// in\n    tag_17:\n      tag_19\n      jump\t// in\n    tag_16:\n      mload(0x40)\n      tag_20\n      swap5\n      swap4\n      swap3\n      swap2\n      swap1\n      tag_21\n      jump\t// in\n    tag_20:\n      mload(0x40)\n      dup1\n      swap2\n      sub\n      swap1\n      return\n        /* \"test1.sol\":3140:3246  function getSuccessfulProjects() external view returns(uint) {... */\n    tag_3:\n      callvalue\n      dup1\n      iszero\n      tag_22\n      jumpi\n      0x00\n      dup1\n      revert\n    tag_22:\n      pop\n      tag_23\n      tag_24\n      jump\t// in\n    tag_23:\n      mload(0x40)\n      tag_25\n      swap2\n      swap1\n      tag_26\n      jump\t// in\n    tag_25:\n      mload(0x40)\n      dup1\n      swap2\n      sub\n      swap1\n      return\n        /* \"test1.sol\":2786:3050  function getRemainingTime(uint _projectId) external view returns(uint) {... */\n    tag_4:\n      callvalue\n      dup1\n      iszero\n      tag_27\n      jumpi\n      0x00\n      dup1\n      revert\n    tag_27:\n      pop\n      tag_28\n      0x04\n      dup1\n      calldatasize\n      sub\n      dup2\n      add\n      swap1\n      tag_29\n      swap2\n      swap1\n      tag_18\n      jump\t// in\n    tag_29:\n      tag_30\n      jump\t// in\n    tag_28:\n      mload(0x40)\n      tag_31\n      swap2\n      swap1\n      tag_26\n      jump\t// in\n    tag_31:\n      mload(0x40)\n      dup1\n      swap2\n      sub\n      swap1\n      return\n        /* \"test1.sol\":860:1219  function createProject(uint _deadline, uint _id, string memory _name) external {... */\n    tag_5:\n      callvalue\n      dup1\n      iszero\n      tag_32\n      jumpi\n      0x00\n      dup1\n      revert\n    tag_32:\n      pop\n      tag_33\n      0x04\n      dup1\n      calldatasize\n      sub\n      dup2\n      add\n      swap1\n      tag_34\n      swap2\n      swap1\n      tag_35\n      jump\t// in\n    tag_34:\n      tag_36\n      jump\t// in\n    tag_33:\n      stop\n        /* \"test1.sol\":3339:3441  function getFailedProjects() external view returns(uint) {... */\n    tag_6:\n      callvalue\n      dup1\n      iszero\n      tag_37\n      jumpi\n      0x00\n      dup1\n      revert\n    tag_37:\n      pop\n      tag_38\n      tag_39\n      jump\t// in\n    tag_38:\n      mload(0x40)\n      tag_40\n      swap2\n      swap1\n      tag_26\n      jump\t// in\n    tag_40:\n      mload(0x40)\n      dup1\n      swap2\n      sub\n      swap1\n      return\n        /* \"test1.sol\":2525:2710  function withdrawCommission() external {... */\n    tag_7:\n      callvalue\n      dup1\n      iszero\n      tag_41\n      jumpi\n      0x00\n      dup1\n      revert\n    tag_41:\n      pop\n      tag_42\n      tag_43\n      jump\t// in\n    tag_42:\n      stop\n        /* \"test1.sol\":456:487  uint public totalFundedProjects */\n    tag_8:\n      callvalue\n      dup1\n      iszero\n      tag_44\n      jumpi\n      0x00\n      dup1\n      revert\n    tag_44:\n      pop\n      tag_45\n      tag_46\n      jump\t// in\n    tag_45:\n      mload(0x40)\n      tag_47\n      swap2\n      swap1\n      tag_26\n      jump\t// in\n    tag_47:\n      mload(0x40)\n      dup1\n      swap2\n      sub\n      swap1\n      return\n        /* \"test1.sol\":1262:2125  function fundProject(uint _projectId) external payable {... */\n    tag_9:\n      tag_48\n      0x04\n      dup1\n      calldatasize\n      sub\n      dup2\n      add\n      swap1\n      tag_49\n      swap2\n      swap1\n      tag_18\n      jump\t// in\n    tag_49:\n      tag_50\n      jump\t// in\n    tag_48:\n      stop\n        /* \"test1.sol\":2187:2470  function enhanceDeadline(uint _projectId, uint _additionalSeconds) external {... */\n    tag_10:\n      callvalue\n      dup1\n      iszero\n      tag_51\n      jumpi\n      0x00\n      dup1\n      revert\n    tag_51:\n      pop\n      tag_52\n      0x04\n      dup1\n      calldatasize\n      sub\n      dup2\n      add\n      swap1\n      tag_53\n      swap2\n      swap1\n      tag_54\n      jump\t// in\n    tag_53:\n      tag_55\n      jump\t// in\n    tag_52:\n      stop\n        /* \"test1.sol\":382:407  uint public totalProjects */\n    tag_11:\n      callvalue\n      dup1\n      iszero\n      tag_56\n      jumpi\n      0x00\n      dup1\n      revert\n    tag_56:\n      pop\n      tag_57\n      tag_58\n      jump\t// in\n    tag_57:\n      mload(0x40)\n      tag_59\n      swap2\n      swap1\n      tag_26\n      jump\t// in\n    tag_59:\n      mload(0x40)\n      dup1\n      swap2\n      sub\n      swap1\n      return\n        /* \"test1.sol\":625:653  uint public systemCommission */\n    tag_12:\n      callvalue\n      dup1\n      iszero\n      tag_60\n      jumpi\n      0x00\n      dup1\n      revert\n    tag_60:\n      pop\n      tag_61\n      tag_62\n      jump\t// in\n    tag_61:\n      mload(0x40)\n      tag_63\n      swap2\n      swap1\n      tag_26\n      jump\t// in\n    tag_63:\n      mload(0x40)\n      dup1\n      swap2\n      sub\n      swap1\n      return\n        /* \"test1.sol\":536:567  uint public totalFailedProjects */\n    tag_13:\n      callvalue\n      dup1\n      iszero\n      tag_64\n      jumpi\n      0x00\n      dup1\n      revert\n    tag_64:\n      pop\n      tag_65\n      tag_66\n      jump\t// in\n    tag_65:\n      mload(0x40)\n      tag_67\n      swap2\n      swap1\n      tag_26\n      jump\t// in\n    tag_67:\n      mload(0x40)\n      dup1\n      swap2\n      sub\n      swap1\n      return\n        /* \"test1.sol\":292:332  mapping(uint => Project) public projects */\n    tag_19:\n      mstore(0x20, 0x00)\n      dup1\n      0x00\n      mstore\n      keccak256(0x00, 0x40)\n      0x00\n      swap2\n      pop\n      swap1\n      pop\n      dup1\n      0x00\n      add\n      dup1\n      sload\n      tag_68\n      swap1\n      tag_69\n      jump\t// in\n    tag_68:\n      dup1\n      0x1f\n      add\n      0x20\n      dup1\n      swap2\n      div\n      mul\n      0x20\n      add\n      mload(0x40)\n      swap1\n      dup2\n      add\n      0x40\n      mstore\n      dup1\n      swap3\n      swap2\n      swap1\n      dup2\n      dup2\n      mstore\n      0x20\n      add\n      dup3\n      dup1\n      sload\n      tag_70\n      swap1\n      tag_69\n      jump\t// in\n    tag_70:\n      dup1\n      iszero\n      tag_71\n      jumpi\n      dup1\n      0x1f\n      lt\n      tag_72\n      jumpi\n      0x0100\n      dup1\n      dup4\n      sload\n      div\n      mul\n      dup4\n      mstore\n      swap2\n      0x20\n      add\n      swap2\n      jump(tag_71)\n    tag_72:\n      dup3\n      add\n      swap2\n      swap1\n      0x00\n      mstore\n      keccak256(0x00, 0x20)\n      swap1\n    tag_73:\n      dup2\n      sload\n      dup2\n      mstore\n      swap1\n      0x01\n      add\n      swap1\n      0x20\n      add\n      dup1\n      dup4\n      gt\n      tag_73\n      jumpi\n      dup3\n      swap1\n      sub\n      0x1f\n      and\n      dup3\n      add\n      swap2\n    tag_71:\n      pop\n      pop\n      pop\n      pop\n      pop\n      swap1\n      dup1\n      0x01\n      add\n      sload\n      swap1\n      dup1\n      0x02\n      add\n      sload\n      swap1\n      dup1\n      0x03\n      add\n      0x00\n      swap1\n      sload\n      swap1\n      0x0100\n      exp\n      swap1\n      div\n      0xff\n      and\n      swap1\n      pop\n      dup5\n      jump\t// out\n        /* \"test1.sol\":3140:3246  function getSuccessfulProjects() external view returns(uint) {... */\n    tag_24:\n        /* \"test1.sol\":3195:3199  uint */\n      0x00\n        /* \"test1.sol\":3219:3238  totalFundedProjects */\n      sload(0x02)\n        /* \"test1.sol\":3212:3238  return totalFundedProjects */\n      swap1\n      pop\n        /* \"test1.sol\":3140:3246  function getSuccessfulProjects() external view returns(uint) {... */\n      swap1\n      jump\t// out\n        /* \"test1.sol\":2786:3050  function getRemainingTime(uint _projectId) external view returns(uint) {... */\n    tag_30:\n        /* \"test1.sol\":2851:2855  uint */\n      0x00\n        /* \"test1.sol\":2890:2898  projects */\n      dup1\n        /* \"test1.sol\":2890:2910  projects[_projectId] */\n      0x00\n        /* \"test1.sol\":2899:2909  _projectId */\n      dup4\n        /* \"test1.sol\":2890:2910  projects[_projectId] */\n      dup2\n      mstore\n      0x20\n      add\n      swap1\n      dup2\n      mstore\n      0x20\n      add\n      0x00\n      keccak256\n        /* \"test1.sol\":2890:2919  projects[_projectId].deadline */\n      0x01\n      add\n      sload\n        /* \"test1.sol\":2872:2887  block.timestamp */\n      timestamp\n        /* \"test1.sol\":2872:2919  block.timestamp > projects[_projectId].deadline */\n      gt\n        /* \"test1.sol\":2868:3043  if (block.timestamp > projects[_projectId].deadline) {... */\n      iszero\n      tag_76\n      jumpi\n        /* \"test1.sol\":2943:2944  0 */\n      0x00\n        /* \"test1.sol\":2936:2944  return 0 */\n      swap1\n      pop\n      jump(tag_75)\n        /* \"test1.sol\":2868:3043  if (block.timestamp > projects[_projectId].deadline) {... */\n    tag_76:\n        /* \"test1.sol\":3016:3031  block.timestamp */\n      timestamp\n        /* \"test1.sol\":2984:2992  projects */\n      0x00\n        /* \"test1.sol\":2984:3004  projects[_projectId] */\n      dup1\n        /* \"test1.sol\":2993:3003  _projectId */\n      dup5\n        /* \"test1.sol\":2984:3004  projects[_projectId] */\n      dup2\n      mstore\n      0x20\n      add\n      swap1\n      dup2\n      mstore\n      0x20\n      add\n      0x00\n      keccak256\n        /* \"test1.sol\":2984:3013  projects[_projectId].deadline */\n      0x01\n      add\n      sload\n        /* \"test1.sol\":2984:3031  projects[_projectId].deadline - block.timestamp */\n      tag_78\n      swap2\n      swap1\n      tag_79\n      jump\t// in\n    tag_78:\n        /* \"test1.sol\":2977:3031  return projects[_projectId].deadline - block.timestamp */\n      swap1\n      pop\n        /* \"test1.sol\":2786:3050  function getRemainingTime(uint _projectId) external view returns(uint) {... */\n    tag_75:\n      swap2\n      swap1\n      pop\n      jump\t// out\n        /* \"test1.sol\":860:1219  function createProject(uint _deadline, uint _id, string memory _name) external {... */\n    tag_36:\n        /* \"test1.sol\":970:985  block.timestamp */\n      timestamp\n        /* \"test1.sol\":958:967  _deadline */\n      dup4\n        /* \"test1.sol\":958:985  _deadline > block.timestamp */\n      gt\n        /* \"test1.sol\":950:1020  require(_deadline > block.timestamp, \"Deadline must be in the future\") */\n      tag_81\n      jumpi\n      mload(0x40)\n      0x08c379a000000000000000000000000000000000000000000000000000000000\n      dup2\n      mstore\n      0x04\n      add\n      tag_82\n      swap1\n      tag_83\n      jump\t// in\n    tag_82:\n      mload(0x40)\n      dup1\n      swap2\n      sub\n      swap1\n      revert\n    tag_81:\n        /* \"test1.sol\":1047:1185  Project({... */\n      mload(0x40)\n      dup1\n      0x80\n      add\n      0x40\n      mstore\n      dup1\n        /* \"test1.sol\":1076:1081  _name */\n      dup3\n        /* \"test1.sol\":1047:1185  Project({... */\n      dup2\n      mstore\n      0x20\n      add\n        /* \"test1.sol\":1106:1115  _deadline */\n      dup5\n        /* \"test1.sol\":1047:1185  Project({... */\n      dup2\n      mstore\n      0x20\n      add\n        /* \"test1.sol\":1144:1145  0 */\n      0x00\n        /* \"test1.sol\":1047:1185  Project({... */\n      dup2\n      mstore\n      0x20\n      add\n        /* \"test1.sol\":1168:1173  false */\n      0x00\n        /* \"test1.sol\":1047:1185  Project({... */\n      iszero\n      iszero\n      dup2\n      mstore\n      pop\n        /* \"test1.sol\":1031:1039  projects */\n      0x00\n        /* \"test1.sol\":1031:1044  projects[_id] */\n      dup1\n        /* \"test1.sol\":1040:1043  _id */\n      dup5\n        /* \"test1.sol\":1031:1044  projects[_id] */\n      dup2\n      mstore\n      0x20\n      add\n      swap1\n      dup2\n      mstore\n      0x20\n      add\n      0x00\n      keccak256\n        /* \"test1.sol\":1031:1185  projects[_id] = Project({... */\n      0x00\n      dup3\n      add\n      mload\n      dup2\n      0x00\n      add\n      swap1\n      dup2\n      tag_84\n      swap2\n      swap1\n      tag_85\n      jump\t// in\n    tag_84:\n      pop\n      0x20\n      dup3\n      add\n      mload\n      dup2\n      0x01\n      add\n      sstore\n      0x40\n      dup3\n      add\n      mload\n      dup2\n      0x02\n      add\n      sstore\n      0x60\n      dup3\n      add\n      mload\n      dup2\n      0x03\n      add\n      exp(0x0100, 0x00)\n      dup2\n      sload\n      dup2\n      0xff\n      mul\n      not\n      and\n      swap1\n      dup4\n      iszero\n      iszero\n      mul\n      or\n      swap1\n      sstore\n      pop\n      swap1\n      pop\n      pop\n        /* \"test1.sol\":1196:1209  totalProjects */\n      0x01\n      0x00\n        /* \"test1.sol\":1196:1211  totalProjects++ */\n      dup2\n      sload\n      dup1\n      swap3\n      swap2\n      swap1\n      tag_86\n      swap1\n      tag_87\n      jump\t// in\n    tag_86:\n      swap2\n      swap1\n      pop\n      sstore\n      pop\n        /* \"test1.sol\":860:1219  function createProject(uint _deadline, uint _id, string memory _name) external {... */\n      pop\n      pop\n      pop\n      jump\t// out\n        /* \"test1.sol\":3339:3441  function getFailedProjects() external view returns(uint) {... */\n    tag_39:\n        /* \"test1.sol\":3390:3394  uint */\n      0x00\n        /* \"test1.sol\":3414:3433  totalFailedProjects */\n      sload(0x03)\n        /* \"test1.sol\":3407:3433  return totalFailedProjects */\n      swap1\n      pop\n        /* \"test1.sol\":3339:3441  function getFailedProjects() external view returns(uint) {... */\n      swap1\n      jump\t// out\n        /* \"test1.sol\":2525:2710  function withdrawCommission() external {... */\n    tag_43:\n      jump\t// out\n        /* \"test1.sol\":456:487  uint public totalFundedProjects */\n    tag_46:\n      sload(0x02)\n      dup2\n      jump\t// out\n        /* \"test1.sol\":1262:2125  function fundProject(uint _projectId) external payable {... */\n    tag_50:\n        /* \"test1.sol\":1328:1351  Project storage project */\n      0x00\n        /* \"test1.sol\":1354:1362  projects */\n      dup1\n        /* \"test1.sol\":1354:1374  projects[_projectId] */\n      0x00\n        /* \"test1.sol\":1363:1373  _projectId */\n      dup4\n        /* \"test1.sol\":1354:1374  projects[_projectId] */\n      dup2\n      mstore\n      0x20\n      add\n      swap1\n      dup2\n      mstore\n      0x20\n      add\n      0x00\n      keccak256\n        /* \"test1.sol\":1328:1374  Project storage project = projects[_projectId] */\n      swap1\n      pop\n        /* \"test1.sol\":1412:1419  project */\n      dup1\n        /* \"test1.sol\":1412:1428  project.deadline */\n      0x01\n      add\n      sload\n        /* \"test1.sol\":1393:1408  block.timestamp */\n      timestamp\n        /* \"test1.sol\":1393:1428  block.timestamp <= project.deadline */\n      gt\n      iszero\n        /* \"test1.sol\":1385:1467  require(block.timestamp <= project.deadline, \"Project deadline is already passed\") */\n      tag_91\n      jumpi\n      mload(0x40)\n      0x08c379a000000000000000000000000000000000000000000000000000000000\n      dup2\n      mstore\n      0x04\n      add\n      tag_92\n      swap1\n      tag_93\n      jump\t// in\n    tag_92:\n      mload(0x40)\n      dup1\n      swap2\n      sub\n      swap1\n      revert\n    tag_91:\n        /* \"test1.sol\":1487:1494  project */\n      dup1\n        /* \"test1.sol\":1487:1501  project.funded */\n      0x03\n      add\n      0x00\n      swap1\n      sload\n      swap1\n      0x0100\n      exp\n      swap1\n      div\n      0xff\n      and\n        /* \"test1.sol\":1486:1501  !project.funded */\n      iszero\n        /* \"test1.sol\":1478:1531  require(!project.funded, \"Project is already funded\") */\n      tag_94\n      jumpi\n      mload(0x40)\n      0x08c379a000000000000000000000000000000000000000000000000000000000\n      dup2\n      mstore\n      0x04\n      add\n      tag_95\n      swap1\n      tag_96\n      jump\t// in\n    tag_95:\n      mload(0x40)\n      dup1\n      swap2\n      sub\n      swap1\n      revert\n    tag_94:\n        /* \"test1.sol\":1562:1563  0 */\n      0x00\n        /* \"test1.sol\":1550:1559  msg.value */\n      callvalue\n        /* \"test1.sol\":1550:1563  msg.value > 0 */\n      gt\n        /* \"test1.sol\":1542:1597  require(msg.value > 0, \"Must send some value of ether\") */\n      tag_97\n      jumpi\n      mload(0x40)\n      0x08c379a000000000000000000000000000000000000000000000000000000000\n      dup2\n      mstore\n      0x04\n      add\n      tag_98\n      swap1\n      tag_99\n      jump\t// in\n    tag_98:\n      mload(0x40)\n      dup1\n      swap2\n      sub\n      swap1\n      revert\n    tag_97:\n        /* \"test1.sol\":1643:1658  uint commission */\n      0x00\n        /* \"test1.sol\":1677:1680  100 */\n      0x64\n        /* \"test1.sol\":1673:1674  5 */\n      0x05\n        /* \"test1.sol\":1661:1670  msg.value */\n      callvalue\n        /* \"test1.sol\":1661:1674  msg.value * 5 */\n      tag_100\n      swap2\n      swap1\n      tag_101\n      jump\t// in\n    tag_100:\n        /* \"test1.sol\":1661:1680  msg.value * 5 / 100 */\n      tag_102\n      swap2\n      swap1\n      tag_103\n      jump\t// in\n    tag_102:\n        /* \"test1.sol\":1643:1680  uint commission = msg.value * 5 / 100 */\n      swap1\n      pop\n        /* \"test1.sol\":1711:1721  commission */\n      dup1\n        /* \"test1.sol\":1691:1707  systemCommission */\n      0x04\n      0x00\n        /* \"test1.sol\":1691:1721  systemCommission += commission */\n      dup3\n      dup3\n      sload\n      tag_104\n      swap2\n      swap1\n      tag_105\n      jump\t// in\n    tag_104:\n      swap3\n      pop\n      pop\n      dup2\n      swap1\n      sstore\n      pop\n        /* \"test1.sol\":1792:1815  uint contributionAmount */\n      0x00\n        /* \"test1.sol\":1830:1840  commission */\n      dup2\n        /* \"test1.sol\":1818:1827  msg.value */\n      callvalue\n        /* \"test1.sol\":1818:1840  msg.value - commission */\n      tag_106\n      swap2\n      swap1\n      tag_79\n      jump\t// in\n    tag_106:\n        /* \"test1.sol\":1792:1840  uint contributionAmount = msg.value - commission */\n      swap1\n      pop\n        /* \"test1.sol\":1877:1895  contributionAmount */\n      dup1\n        /* \"test1.sol\":1853:1860  project */\n      dup4\n        /* \"test1.sol\":1853:1873  project.amountRaised */\n      0x02\n      add\n      0x00\n        /* \"test1.sol\":1853:1895  project.amountRaised += contributionAmount */\n      dup3\n      dup3\n      sload\n      tag_107\n      swap2\n      swap1\n      tag_105\n      jump\t// in\n    tag_107:\n      swap3\n      pop\n      pop\n      dup2\n      swap1\n      sstore\n      pop\n        /* \"test1.sol\":1934:1937  100 */\n      0x64\n        /* \"test1.sol\":1910:1917  project */\n      dup4\n        /* \"test1.sol\":1910:1930  project.amountRaised */\n      0x02\n      add\n      sload\n        /* \"test1.sol\":1910:1937  project.amountRaised >= 100 */\n      lt\n        /* \"test1.sol\":1906:2118  if (project.amountRaised >= 100) {... */\n      tag_108\n      jumpi\n        /* \"test1.sol\":1971:1975  true */\n      0x01\n        /* \"test1.sol\":1954:1961  project */\n      dup4\n        /* \"test1.sol\":1954:1968  project.funded */\n      0x03\n      add\n      0x00\n        /* \"test1.sol\":1954:1975  project.funded = true */\n      0x0100\n      exp\n      dup2\n      sload\n      dup2\n      0xff\n      mul\n      not\n      and\n      swap1\n      dup4\n      iszero\n      iszero\n      mul\n      or\n      swap1\n      sstore\n      pop\n        /* \"test1.sol\":1990:2009  totalFundedProjects */\n      0x02\n      0x00\n        /* \"test1.sol\":1990:2011  totalFundedProjects++ */\n      dup2\n      sload\n      dup1\n      swap3\n      swap2\n      swap1\n      tag_109\n      swap1\n      tag_87\n      jump\t// in\n    tag_109:\n      swap2\n      swap1\n      pop\n      sstore\n      pop\n        /* \"test1.sol\":1906:2118  if (project.amountRaised >= 100) {... */\n      jump(tag_110)\n    tag_108:\n        /* \"test1.sol\":2052:2059  project */\n      dup3\n        /* \"test1.sol\":2052:2068  project.deadline */\n      0x01\n      add\n      sload\n        /* \"test1.sol\":2033:2048  block.timestamp */\n      timestamp\n        /* \"test1.sol\":2033:2068  block.timestamp >= project.deadline */\n      lt\n        /* \"test1.sol\":2029:2118  if (block.timestamp >= project.deadline) {... */\n      tag_111\n      jumpi\n        /* \"test1.sol\":2085:2104  totalFailedProjects */\n      0x03\n      0x00\n        /* \"test1.sol\":2085:2106  totalFailedProjects++ */\n      dup2\n      sload\n      dup1\n      swap3\n      swap2\n      swap1\n      tag_112\n      swap1\n      tag_87\n      jump\t// in\n    tag_112:\n      swap2\n      swap1\n      pop\n      sstore\n      pop\n        /* \"test1.sol\":2029:2118  if (block.timestamp >= project.deadline) {... */\n    tag_111:\n        /* \"test1.sol\":1906:2118  if (project.amountRaised >= 100) {... */\n    tag_110:\n        /* \"test1.sol\":1317:2125  {... */\n      pop\n      pop\n      pop\n        /* \"test1.sol\":1262:2125  function fundProject(uint _projectId) external payable {... */\n      pop\n      jump\t// out\n        /* \"test1.sol\":2187:2470  function enhanceDeadline(uint _projectId, uint _additionalSeconds) external {... */\n    tag_55:\n        /* \"test1.sol\":2274:2297  Project storage project */\n      0x00\n        /* \"test1.sol\":2300:2308  projects */\n      dup1\n        /* \"test1.sol\":2300:2320  projects[_projectId] */\n      0x00\n        /* \"test1.sol\":2309:2319  _projectId */\n      dup5\n        /* \"test1.sol\":2300:2320  projects[_projectId] */\n      dup2\n      mstore\n      0x20\n      add\n      swap1\n      dup2\n      mstore\n      0x20\n      add\n      0x00\n      keccak256\n        /* \"test1.sol\":2274:2320  Project storage project = projects[_projectId] */\n      swap1\n      pop\n        /* \"test1.sol\":2358:2365  project */\n      dup1\n        /* \"test1.sol\":2358:2374  project.deadline */\n      0x01\n      add\n      sload\n        /* \"test1.sol\":2339:2354  block.timestamp */\n      timestamp\n        /* \"test1.sol\":2339:2374  block.timestamp <= project.deadline */\n      gt\n      iszero\n        /* \"test1.sol\":2331:2413  require(block.timestamp <= project.deadline, \"Project deadline is already passed\") */\n      tag_114\n      jumpi\n      mload(0x40)\n      0x08c379a000000000000000000000000000000000000000000000000000000000\n      dup2\n      mstore\n      0x04\n      add\n      tag_115\n      swap1\n      tag_93\n      jump\t// in\n    tag_115:\n      mload(0x40)\n      dup1\n      swap2\n      sub\n      swap1\n      revert\n    tag_114:\n        /* \"test1.sol\":2444:2462  _additionalSeconds */\n      dup2\n        /* \"test1.sol\":2424:2431  project */\n      dup2\n        /* \"test1.sol\":2424:2440  project.deadline */\n      0x01\n      add\n      0x00\n        /* \"test1.sol\":2424:2462  project.deadline += _additionalSeconds */\n      dup3\n      dup3\n      sload\n      tag_116\n      swap2\n      swap1\n      tag_105\n      jump\t// in\n    tag_116:\n      swap3\n      pop\n      pop\n      dup2\n      swap1\n      sstore\n      pop\n        /* \"test1.sol\":2263:2470  {... */\n      pop\n        /* \"test1.sol\":2187:2470  function enhanceDeadline(uint _projectId, uint _additionalSeconds) external {... */\n      pop\n      pop\n      jump\t// out\n        /* \"test1.sol\":382:407  uint public totalProjects */\n    tag_58:\n      sload(0x01)\n      dup2\n      jump\t// out\n        /* \"test1.sol\":625:653  uint public systemCommission */\n    tag_62:\n      sload(0x04)\n      dup2\n      jump\t// out\n        /* \"test1.sol\":536:567  uint public totalFailedProjects */\n    tag_66:\n      sload(0x03)\n      dup2\n      jump\t// out\n        /* \"#utility.yul\":7:82   */\n    tag_117:\n        /* \"#utility.yul\":40:46   */\n      0x00\n        /* \"#utility.yul\":73:75   */\n      0x40\n        /* \"#utility.yul\":67:76   */\n      mload\n        /* \"#utility.yul\":57:76   */\n      swap1\n      pop\n        /* \"#utility.yul\":7:82   */\n      swap1\n      jump\t// out\n        /* \"#utility.yul\":88:205   */\n    tag_118:\n        /* \"#utility.yul\":197:198   */\n      0x00\n        /* \"#utility.yul\":194:195   */\n      dup1\n        /* \"#utility.yul\":187:199   */\n      revert\n        /* \"#utility.yul\":211:328   */\n    tag_119:\n        /* \"#utility.yul\":320:321   */\n      0x00\n        /* \"#utility.yul\":317:318   */\n      dup1\n        /* \"#utility.yul\":310:322   */\n      revert\n        /* \"#utility.yul\":334:411   */\n    tag_120:\n        /* \"#utility.yul\":371:378   */\n      0x00\n        /* \"#utility.yul\":400:405   */\n      dup2\n        /* \"#utility.yul\":389:405   */\n      swap1\n      pop\n        /* \"#utility.yul\":334:411   */\n      swap2\n      swap1\n      pop\n      jump\t// out\n        /* \"#utility.yul\":417:539   */\n    tag_121:\n        /* \"#utility.yul\":490:514   */\n      tag_172\n        /* \"#utility.yul\":508:513   */\n      dup2\n        /* \"#utility.yul\":490:514   */\n      tag_120\n      jump\t// in\n    tag_172:\n        /* \"#utility.yul\":483:488   */\n      dup2\n        /* \"#utility.yul\":480:515   */\n      eq\n        /* \"#utility.yul\":470:533   */\n      tag_173\n      jumpi\n        /* \"#utility.yul\":529:530   */\n      0x00\n        /* \"#utility.yul\":526:527   */\n      dup1\n        /* \"#utility.yul\":519:531   */\n      revert\n        /* \"#utility.yul\":470:533   */\n    tag_173:\n        /* \"#utility.yul\":417:539   */\n      pop\n      jump\t// out\n        /* \"#utility.yul\":545:684   */\n    tag_122:\n        /* \"#utility.yul\":591:596   */\n      0x00\n        /* \"#utility.yul\":629:635   */\n      dup2\n        /* \"#utility.yul\":616:636   */\n      calldataload\n        /* \"#utility.yul\":607:636   */\n      swap1\n      pop\n        /* \"#utility.yul\":645:678   */\n      tag_175\n        /* \"#utility.yul\":672:677   */\n      dup2\n        /* \"#utility.yul\":645:678   */\n      tag_121\n      jump\t// in\n    tag_175:\n        /* \"#utility.yul\":545:684   */\n      swap3\n      swap2\n      pop\n      pop\n      jump\t// out\n        /* \"#utility.yul\":690:1019   */\n    tag_18:\n        /* \"#utility.yul\":749:755   */\n      0x00\n        /* \"#utility.yul\":798:800   */\n      0x20\n        /* \"#utility.yul\":786:795   */\n      dup3\n        /* \"#utility.yul\":777:784   */\n      dup5\n        /* \"#utility.yul\":773:796   */\n      sub\n        /* \"#utility.yul\":769:801   */\n      slt\n        /* \"#utility.yul\":766:885   */\n      iszero\n      tag_177\n      jumpi\n        /* \"#utility.yul\":804:883   */\n      tag_178\n      tag_118\n      jump\t// in\n    tag_178:\n        /* \"#utility.yul\":766:885   */\n    tag_177:\n        /* \"#utility.yul\":924:925   */\n      0x00\n        /* \"#utility.yul\":949:1002   */\n      tag_179\n        /* \"#utility.yul\":994:1001   */\n      dup5\n        /* \"#utility.yul\":985:991   */\n      dup3\n        /* \"#utility.yul\":974:983   */\n      dup6\n        /* \"#utility.yul\":970:992   */\n      add\n        /* \"#utility.yul\":949:1002   */\n      tag_122\n      jump\t// in\n    tag_179:\n        /* \"#utility.yul\":939:1002   */\n      swap2\n      pop\n        /* \"#utility.yul\":895:1012   */\n      pop\n        /* \"#utility.yul\":690:1019   */\n      swap3\n      swap2\n      pop\n      pop\n      jump\t// out\n        /* \"#utility.yul\":1025:1124   */\n    tag_123:\n        /* \"#utility.yul\":1077:1083   */\n      0x00\n        /* \"#utility.yul\":1111:1116   */\n      dup2\n        /* \"#utility.yul\":1105:1117   */\n      mload\n        /* \"#utility.yul\":1095:1117   */\n      swap1\n      pop\n        /* \"#utility.yul\":1025:1124   */\n      swap2\n      swap1\n      pop\n      jump\t// out\n        /* \"#utility.yul\":1130:1299   */\n    tag_124:\n        /* \"#utility.yul\":1214:1225   */\n      0x00\n        /* \"#utility.yul\":1248:1254   */\n      dup3\n        /* \"#utility.yul\":1243:1246   */\n      dup3\n        /* \"#utility.yul\":1236:1255   */\n      mstore\n        /* \"#utility.yul\":1288:1292   */\n      0x20\n        /* \"#utility.yul\":1283:1286   */\n      dup3\n        /* \"#utility.yul\":1279:1293   */\n      add\n        /* \"#utility.yul\":1264:1293   */\n      swap1\n      pop\n        /* \"#utility.yul\":1130:1299   */\n      swap3\n      swap2\n      pop\n      pop\n      jump\t// out\n        /* \"#utility.yul\":1305:1444   */\n    tag_125:\n        /* \"#utility.yul\":1394:1400   */\n      dup3\n        /* \"#utility.yul\":1389:1392   */\n      dup2\n        /* \"#utility.yul\":1384:1387   */\n      dup4\n        /* \"#utility.yul\":1378:1401   */\n      mcopy\n        /* \"#utility.yul\":1435:1436   */\n      0x00\n        /* \"#utility.yul\":1426:1432   */\n      dup4\n        /* \"#utility.yul\":1421:1424   */\n      dup4\n        /* \"#utility.yul\":1417:1433   */\n      add\n        /* \"#utility.yul\":1410:1437   */\n      mstore\n        /* \"#utility.yul\":1305:1444   */\n      pop\n      pop\n      pop\n      jump\t// out\n        /* \"#utility.yul\":1450:1552   */\n    tag_126:\n        /* \"#utility.yul\":1491:1497   */\n      0x00\n        /* \"#utility.yul\":1542:1544   */\n      0x1f\n        /* \"#utility.yul\":1538:1545   */\n      not\n        /* \"#utility.yul\":1533:1535   */\n      0x1f\n        /* \"#utility.yul\":1526:1531   */\n      dup4\n        /* \"#utility.yul\":1522:1536   */\n      add\n        /* \"#utility.yul\":1518:1546   */\n      and\n        /* \"#utility.yul\":1508:1546   */\n      swap1\n      pop\n        /* \"#utility.yul\":1450:1552   */\n      swap2\n      swap1\n      pop\n      jump\t// out\n        /* \"#utility.yul\":1558:1935   */\n    tag_127:\n        /* \"#utility.yul\":1646:1649   */\n      0x00\n        /* \"#utility.yul\":1674:1713   */\n      tag_185\n        /* \"#utility.yul\":1707:1712   */\n      dup3\n        /* \"#utility.yul\":1674:1713   */\n      tag_123\n      jump\t// in\n    tag_185:\n        /* \"#utility.yul\":1729:1800   */\n      tag_186\n        /* \"#utility.yul\":1793:1799   */\n      dup2\n        /* \"#utility.yul\":1788:1791   */\n      dup6\n        /* \"#utility.yul\":1729:1800   */\n      tag_124\n      jump\t// in\n    tag_186:\n        /* \"#utility.yul\":1722:1800   */\n      swap4\n      pop\n        /* \"#utility.yul\":1809:1874   */\n      tag_187\n        /* \"#utility.yul\":1867:1873   */\n      dup2\n        /* \"#utility.yul\":1862:1865   */\n      dup6\n        /* \"#utility.yul\":1855:1859   */\n      0x20\n        /* \"#utility.yul\":1848:1853   */\n      dup7\n        /* \"#utility.yul\":1844:1860   */\n      add\n        /* \"#utility.yul\":1809:1874   */\n      tag_125\n      jump\t// in\n    tag_187:\n        /* \"#utility.yul\":1899:1928   */\n      tag_188\n        /* \"#utility.yul\":1921:1927   */\n      dup2\n        /* \"#utility.yul\":1899:1928   */\n      tag_126\n      jump\t// in\n    tag_188:\n        /* \"#utility.yul\":1894:1897   */\n      dup5\n        /* \"#utility.yul\":1890:1929   */\n      add\n        /* \"#utility.yul\":1883:1929   */\n      swap2\n      pop\n        /* \"#utility.yul\":1650:1935   */\n      pop\n        /* \"#utility.yul\":1558:1935   */\n      swap3\n      swap2\n      pop\n      pop\n      jump\t// out\n        /* \"#utility.yul\":1941:2059   */\n    tag_128:\n        /* \"#utility.yul\":2028:2052   */\n      tag_190\n        /* \"#utility.yul\":2046:2051   */\n      dup2\n        /* \"#utility.yul\":2028:2052   */\n      tag_120\n      jump\t// in\n    tag_190:\n        /* \"#utility.yul\":2023:2026   */\n      dup3\n        /* \"#utility.yul\":2016:2053   */\n      mstore\n        /* \"#utility.yul\":1941:2059   */\n      pop\n      pop\n      jump\t// out\n        /* \"#utility.yul\":2065:2155   */\n    tag_129:\n        /* \"#utility.yul\":2099:2106   */\n      0x00\n        /* \"#utility.yul\":2142:2147   */\n      dup2\n        /* \"#utility.yul\":2135:2148   */\n      iszero\n        /* \"#utility.yul\":2128:2149   */\n      iszero\n        /* \"#utility.yul\":2117:2149   */\n      swap1\n      pop\n        /* \"#utility.yul\":2065:2155   */\n      swap2\n      swap1\n      pop\n      jump\t// out\n        /* \"#utility.yul\":2161:2270   */\n    tag_130:\n        /* \"#utility.yul\":2242:2263   */\n      tag_193\n        /* \"#utility.yul\":2257:2262   */\n      dup2\n        /* \"#utility.yul\":2242:2263   */\n      tag_129\n      jump\t// in\n    tag_193:\n        /* \"#utility.yul\":2237:2240   */\n      dup3\n        /* \"#utility.yul\":2230:2264   */\n      mstore\n        /* \"#utility.yul\":2161:2270   */\n      pop\n      pop\n      jump\t// out\n        /* \"#utility.yul\":2276:2908   */\n    tag_21:\n        /* \"#utility.yul\":2467:2471   */\n      0x00\n        /* \"#utility.yul\":2505:2508   */\n      0x80\n        /* \"#utility.yul\":2494:2503   */\n      dup3\n        /* \"#utility.yul\":2490:2509   */\n      add\n        /* \"#utility.yul\":2482:2509   */\n      swap1\n      pop\n        /* \"#utility.yul\":2555:2564   */\n      dup2\n        /* \"#utility.yul\":2549:2553   */\n      dup2\n        /* \"#utility.yul\":2545:2565   */\n      sub\n        /* \"#utility.yul\":2541:2542   */\n      0x00\n        /* \"#utility.yul\":2530:2539   */\n      dup4\n        /* \"#utility.yul\":2526:2543   */\n      add\n        /* \"#utility.yul\":2519:2566   */\n      mstore\n        /* \"#utility.yul\":2583:2661   */\n      tag_195\n        /* \"#utility.yul\":2656:2660   */\n      dup2\n        /* \"#utility.yul\":2647:2653   */\n      dup8\n        /* \"#utility.yul\":2583:2661   */\n      tag_127\n      jump\t// in\n    tag_195:\n        /* \"#utility.yul\":2575:2661   */\n      swap1\n      pop\n        /* \"#utility.yul\":2671:2743   */\n      tag_196\n        /* \"#utility.yul\":2739:2741   */\n      0x20\n        /* \"#utility.yul\":2728:2737   */\n      dup4\n        /* \"#utility.yul\":2724:2742   */\n      add\n        /* \"#utility.yul\":2715:2721   */\n      dup7\n        /* \"#utility.yul\":2671:2743   */\n      tag_128\n      jump\t// in\n    tag_196:\n        /* \"#utility.yul\":2753:2825   */\n      tag_197\n        /* \"#utility.yul\":2821:2823   */\n      0x40\n        /* \"#utility.yul\":2810:2819   */\n      dup4\n        /* \"#utility.yul\":2806:2824   */\n      add\n        /* \"#utility.yul\":2797:2803   */\n      dup6\n        /* \"#utility.yul\":2753:2825   */\n      tag_128\n      jump\t// in\n    tag_197:\n        /* \"#utility.yul\":2835:2901   */\n      tag_198\n        /* \"#utility.yul\":2897:2899   */\n      0x60\n        /* \"#utility.yul\":2886:2895   */\n      dup4\n        /* \"#utility.yul\":2882:2900   */\n      add\n        /* \"#utility.yul\":2873:2879   */\n      dup5\n        /* \"#utility.yul\":2835:2901   */\n      tag_130\n      jump\t// in\n    tag_198:\n        /* \"#utility.yul\":2276:2908   */\n      swap6\n      swap5\n      pop\n      pop\n      pop\n      pop\n      pop\n      jump\t// out\n        /* \"#utility.yul\":2914:3136   */\n    tag_26:\n        /* \"#utility.yul\":3007:3011   */\n      0x00\n        /* \"#utility.yul\":3045:3047   */\n      0x20\n        /* \"#utility.yul\":3034:3043   */\n      dup3\n        /* \"#utility.yul\":3030:3048   */\n      add\n        /* \"#utility.yul\":3022:3048   */\n      swap1\n      pop\n        /* \"#utility.yul\":3058:3129   */\n      tag_200\n        /* \"#utility.yul\":3126:3127   */\n      0x00\n        /* \"#utility.yul\":3115:3124   */\n      dup4\n        /* \"#utility.yul\":3111:3128   */\n      add\n        /* \"#utility.yul\":3102:3108   */\n      dup5\n        /* \"#utility.yul\":3058:3129   */\n      tag_128\n      jump\t// in\n    tag_200:\n        /* \"#utility.yul\":2914:3136   */\n      swap3\n      swap2\n      pop\n      pop\n      jump\t// out\n        /* \"#utility.yul\":3142:3259   */\n    tag_131:\n        /* \"#utility.yul\":3251:3252   */\n      0x00\n        /* \"#utility.yul\":3248:3249   */\n      dup1\n        /* \"#utility.yul\":3241:3253   */\n      revert\n        /* \"#utility.yul\":3265:3382   */\n    tag_132:\n        /* \"#utility.yul\":3374:3375   */\n      0x00\n        /* \"#utility.yul\":3371:3372   */\n      dup1\n        /* \"#utility.yul\":3364:3376   */\n      revert\n        /* \"#utility.yul\":3388:3568   */\n    tag_133:\n        /* \"#utility.yul\":3436:3513   */\n      0x4e487b7100000000000000000000000000000000000000000000000000000000\n        /* \"#utility.yul\":3433:3434   */\n      0x00\n        /* \"#utility.yul\":3426:3514   */\n      mstore\n        /* \"#utility.yul\":3533:3537   */\n      0x41\n        /* \"#utility.yul\":3530:3531   */\n      0x04\n        /* \"#utility.yul\":3523:3538   */\n      mstore\n        /* \"#utility.yul\":3557:3561   */\n      0x24\n        /* \"#utility.yul\":3554:3555   */\n      0x00\n        /* \"#utility.yul\":3547:3562   */\n      revert\n        /* \"#utility.yul\":3574:3855   */\n    tag_134:\n        /* \"#utility.yul\":3657:3684   */\n      tag_205\n        /* \"#utility.yul\":3679:3683   */\n      dup3\n        /* \"#utility.yul\":3657:3684   */\n      tag_126\n      jump\t// in\n    tag_205:\n        /* \"#utility.yul\":3649:3655   */\n      dup2\n        /* \"#utility.yul\":3645:3685   */\n      add\n        /* \"#utility.yul\":3787:3793   */\n      dup2\n        /* \"#utility.yul\":3775:3785   */\n      dup2\n        /* \"#utility.yul\":3772:3794   */\n      lt\n        /* \"#utility.yul\":3751:3769   */\n      0xffffffffffffffff\n        /* \"#utility.yul\":3739:3749   */\n      dup3\n        /* \"#utility.yul\":3736:3770   */\n      gt\n        /* \"#utility.yul\":3733:3795   */\n      or\n        /* \"#utility.yul\":3730:3818   */\n      iszero\n      tag_206\n      jumpi\n        /* \"#utility.yul\":3798:3816   */\n      tag_207\n      tag_133\n      jump\t// in\n    tag_207:\n        /* \"#utility.yul\":3730:3818   */\n    tag_206:\n        /* \"#utility.yul\":3838:3848   */\n      dup1\n        /* \"#utility.yul\":3834:3836   */\n      0x40\n        /* \"#utility.yul\":3827:3849   */\n      mstore\n        /* \"#utility.yul\":3617:3855   */\n      pop\n        /* \"#utility.yul\":3574:3855   */\n      pop\n      pop\n      jump\t// out\n        /* \"#utility.yul\":3861:3990   */\n    tag_135:\n        /* \"#utility.yul\":3895:3901   */\n      0x00\n        /* \"#utility.yul\":3922:3942   */\n      tag_209\n      tag_117\n      jump\t// in\n    tag_209:\n        /* \"#utility.yul\":3912:3942   */\n      swap1\n      pop\n        /* \"#utility.yul\":3951:3984   */\n      tag_210\n        /* \"#utility.yul\":3979:3983   */\n      dup3\n        /* \"#utility.yul\":3971:3977   */\n      dup3\n        /* \"#utility.yul\":3951:3984   */\n      tag_134\n      jump\t// in\n    tag_210:\n        /* \"#utility.yul\":3861:3990   */\n      swap2\n      swap1\n      pop\n      jump\t// out\n        /* \"#utility.yul\":3996:4304   */\n    tag_136:\n        /* \"#utility.yul\":4058:4062   */\n      0x00\n        /* \"#utility.yul\":4148:4166   */\n      0xffffffffffffffff\n        /* \"#utility.yul\":4140:4146   */\n      dup3\n        /* \"#utility.yul\":4137:4167   */\n      gt\n        /* \"#utility.yul\":4134:4190   */\n      iszero\n      tag_212\n      jumpi\n        /* \"#utility.yul\":4170:4188   */\n      tag_213\n      tag_133\n      jump\t// in\n    tag_213:\n        /* \"#utility.yul\":4134:4190   */\n    tag_212:\n        /* \"#utility.yul\":4208:4237   */\n      tag_214\n        /* \"#utility.yul\":4230:4236   */\n      dup3\n        /* \"#utility.yul\":4208:4237   */\n      tag_126\n      jump\t// in\n    tag_214:\n        /* \"#utility.yul\":4200:4237   */\n      swap1\n      pop\n        /* \"#utility.yul\":4292:4296   */\n      0x20\n        /* \"#utility.yul\":4286:4290   */\n      dup2\n        /* \"#utility.yul\":4282:4297   */\n      add\n        /* \"#utility.yul\":4274:4297   */\n      swap1\n      pop\n        /* \"#utility.yul\":3996:4304   */\n      swap2\n      swap1\n      pop\n      jump\t// out\n        /* \"#utility.yul\":4310:4458   */\n    tag_137:\n        /* \"#utility.yul\":4408:4414   */\n      dup3\n        /* \"#utility.yul\":4403:4406   */\n      dup2\n        /* \"#utility.yul\":4398:4401   */\n      dup4\n        /* \"#utility.yul\":4385:4415   */\n      calldatacopy\n        /* \"#utility.yul\":4449:4450   */\n      0x00\n        /* \"#utility.yul\":4440:4446   */\n      dup4\n        /* \"#utility.yul\":4435:4438   */\n      dup4\n        /* \"#utility.yul\":4431:4447   */\n      add\n        /* \"#utility.yul\":4424:4451   */\n      mstore\n        /* \"#utility.yul\":4310:4458   */\n      pop\n      pop\n      pop\n      jump\t// out\n        /* \"#utility.yul\":4464:4889   */\n    tag_138:\n        /* \"#utility.yul\":4542:4547   */\n      0x00\n        /* \"#utility.yul\":4567:4633   */\n      tag_217\n        /* \"#utility.yul\":4583:4632   */\n      tag_218\n        /* \"#utility.yul\":4625:4631   */\n      dup5\n        /* \"#utility.yul\":4583:4632   */\n      tag_136\n      jump\t// in\n    tag_218:\n        /* \"#utility.yul\":4567:4633   */\n      tag_135\n      jump\t// in\n    tag_217:\n        /* \"#utility.yul\":4558:4633   */\n      swap1\n      pop\n        /* \"#utility.yul\":4656:4662   */\n      dup3\n        /* \"#utility.yul\":4649:4654   */\n      dup2\n        /* \"#utility.yul\":4642:4663   */\n      mstore\n        /* \"#utility.yul\":4694:4698   */\n      0x20\n        /* \"#utility.yul\":4687:4692   */\n      dup2\n        /* \"#utility.yul\":4683:4699   */\n      add\n        /* \"#utility.yul\":4732:4735   */\n      dup5\n        /* \"#utility.yul\":4723:4729   */\n      dup5\n        /* \"#utility.yul\":4718:4721   */\n      dup5\n        /* \"#utility.yul\":4714:4730   */\n      add\n        /* \"#utility.yul\":4711:4736   */\n      gt\n        /* \"#utility.yul\":4708:4820   */\n      iszero\n      tag_219\n      jumpi\n        /* \"#utility.yul\":4739:4818   */\n      tag_220\n      tag_132\n      jump\t// in\n    tag_220:\n        /* \"#utility.yul\":4708:4820   */\n    tag_219:\n        /* \"#utility.yul\":4829:4883   */\n      tag_221\n        /* \"#utility.yul\":4876:4882   */\n      dup5\n        /* \"#utility.yul\":4871:4874   */\n      dup3\n        /* \"#utility.yul\":4866:4869   */\n      dup6\n        /* \"#utility.yul\":4829:4883   */\n      tag_137\n      jump\t// in\n    tag_221:\n        /* \"#utility.yul\":4548:4889   */\n      pop\n        /* \"#utility.yul\":4464:4889   */\n      swap4\n      swap3\n      pop\n      pop\n      pop\n      jump\t// out\n        /* \"#utility.yul\":4909:5249   */\n    tag_139:\n        /* \"#utility.yul\":4965:4970   */\n      0x00\n        /* \"#utility.yul\":5014:5017   */\n      dup3\n        /* \"#utility.yul\":5007:5011   */\n      0x1f\n        /* \"#utility.yul\":4999:5005   */\n      dup4\n        /* \"#utility.yul\":4995:5012   */\n      add\n        /* \"#utility.yul\":4991:5018   */\n      slt\n        /* \"#utility.yul\":4981:5103   */\n      tag_223\n      jumpi\n        /* \"#utility.yul\":5022:5101   */\n      tag_224\n      tag_131\n      jump\t// in\n    tag_224:\n        /* \"#utility.yul\":4981:5103   */\n    tag_223:\n        /* \"#utility.yul\":5139:5145   */\n      dup2\n        /* \"#utility.yul\":5126:5146   */\n      calldataload\n        /* \"#utility.yul\":5164:5243   */\n      tag_225\n        /* \"#utility.yul\":5239:5242   */\n      dup5\n        /* \"#utility.yul\":5231:5237   */\n      dup3\n        /* \"#utility.yul\":5224:5228   */\n      0x20\n        /* \"#utility.yul\":5216:5222   */\n      dup7\n        /* \"#utility.yul\":5212:5229   */\n      add\n        /* \"#utility.yul\":5164:5243   */\n      tag_138\n      jump\t// in\n    tag_225:\n        /* \"#utility.yul\":5155:5243   */\n      swap2\n      pop\n        /* \"#utility.yul\":4971:5249   */\n      pop\n        /* \"#utility.yul\":4909:5249   */\n      swap3\n      swap2\n      pop\n      pop\n      jump\t// out\n        /* \"#utility.yul\":5255:6054   */\n    tag_35:\n        /* \"#utility.yul\":5342:5348   */\n      0x00\n        /* \"#utility.yul\":5350:5356   */\n      dup1\n        /* \"#utility.yul\":5358:5364   */\n      0x00\n        /* \"#utility.yul\":5407:5409   */\n      0x60\n        /* \"#utility.yul\":5395:5404   */\n      dup5\n        /* \"#utility.yul\":5386:5393   */\n      dup7\n        /* \"#utility.yul\":5382:5405   */\n      sub\n        /* \"#utility.yul\":5378:5410   */\n      slt\n        /* \"#utility.yul\":5375:5494   */\n      iszero\n      tag_227\n      jumpi\n        /* \"#utility.yul\":5413:5492   */\n      tag_228\n      tag_118\n      jump\t// in\n    tag_228:\n        /* \"#utility.yul\":5375:5494   */\n    tag_227:\n        /* \"#utility.yul\":5533:5534   */\n      0x00\n        /* \"#utility.yul\":5558:5611   */\n      tag_229\n        /* \"#utility.yul\":5603:5610   */\n      dup7\n        /* \"#utility.yul\":5594:5600   */\n      dup3\n        /* \"#utility.yul\":5583:5592   */\n      dup8\n        /* \"#utility.yul\":5579:5601   */\n      add\n        /* \"#utility.yul\":5558:5611   */\n      tag_122\n      jump\t// in\n    tag_229:\n        /* \"#utility.yul\":5548:5611   */\n      swap4\n      pop\n        /* \"#utility.yul\":5504:5621   */\n      pop\n        /* \"#utility.yul\":5660:5662   */\n      0x20\n        /* \"#utility.yul\":5686:5739   */\n      tag_230\n        /* \"#utility.yul\":5731:5738   */\n      dup7\n        /* \"#utility.yul\":5722:5728   */\n      dup3\n        /* \"#utility.yul\":5711:5720   */\n      dup8\n        /* \"#utility.yul\":5707:5729   */\n      add\n        /* \"#utility.yul\":5686:5739   */\n      tag_122\n      jump\t// in\n    tag_230:\n        /* \"#utility.yul\":5676:5739   */\n      swap3\n      pop\n        /* \"#utility.yul\":5631:5749   */\n      pop\n        /* \"#utility.yul\":5816:5818   */\n      0x40\n        /* \"#utility.yul\":5805:5814   */\n      dup5\n        /* \"#utility.yul\":5801:5819   */\n      add\n        /* \"#utility.yul\":5788:5820   */\n      calldataload\n        /* \"#utility.yul\":5847:5865   */\n      0xffffffffffffffff\n        /* \"#utility.yul\":5839:5845   */\n      dup2\n        /* \"#utility.yul\":5836:5866   */\n      gt\n        /* \"#utility.yul\":5833:5950   */\n      iszero\n      tag_231\n      jumpi\n        /* \"#utility.yul\":5869:5948   */\n      tag_232\n      tag_119\n      jump\t// in\n    tag_232:\n        /* \"#utility.yul\":5833:5950   */\n    tag_231:\n        /* \"#utility.yul\":5974:6037   */\n      tag_233\n        /* \"#utility.yul\":6029:6036   */\n      dup7\n        /* \"#utility.yul\":6020:6026   */\n      dup3\n        /* \"#utility.yul\":6009:6018   */\n      dup8\n        /* \"#utility.yul\":6005:6027   */\n      add\n        /* \"#utility.yul\":5974:6037   */\n      tag_139\n      jump\t// in\n    tag_233:\n        /* \"#utility.yul\":5964:6037   */\n      swap2\n      pop\n        /* \"#utility.yul\":5759:6047   */\n      pop\n        /* \"#utility.yul\":5255:6054   */\n      swap3\n      pop\n      swap3\n      pop\n      swap3\n      jump\t// out\n        /* \"#utility.yul\":6060:6534   */\n    tag_54:\n        /* \"#utility.yul\":6128:6134   */\n      0x00\n        /* \"#utility.yul\":6136:6142   */\n      dup1\n        /* \"#utility.yul\":6185:6187   */\n      0x40\n        /* \"#utility.yul\":6173:6182   */\n      dup4\n        /* \"#utility.yul\":6164:6171   */\n      dup6\n        /* \"#utility.yul\":6160:6183   */\n      sub\n        /* \"#utility.yul\":6156:6188   */\n      slt\n        /* \"#utility.yul\":6153:6272   */\n      iszero\n      tag_235\n      jumpi\n        /* \"#utility.yul\":6191:6270   */\n      tag_236\n      tag_118\n      jump\t// in\n    tag_236:\n        /* \"#utility.yul\":6153:6272   */\n    tag_235:\n        /* \"#utility.yul\":6311:6312   */\n      0x00\n        /* \"#utility.yul\":6336:6389   */\n      tag_237\n        /* \"#utility.yul\":6381:6388   */\n      dup6\n        /* \"#utility.yul\":6372:6378   */\n      dup3\n        /* \"#utility.yul\":6361:6370   */\n      dup7\n        /* \"#utility.yul\":6357:6379   */\n      add\n        /* \"#utility.yul\":6336:6389   */\n      tag_122\n      jump\t// in\n    tag_237:\n        /* \"#utility.yul\":6326:6389   */\n      swap3\n      pop\n        /* \"#utility.yul\":6282:6399   */\n      pop\n        /* \"#utility.yul\":6438:6440   */\n      0x20\n        /* \"#utility.yul\":6464:6517   */\n      tag_238\n        /* \"#utility.yul\":6509:6516   */\n      dup6\n        /* \"#utility.yul\":6500:6506   */\n      dup3\n        /* \"#utility.yul\":6489:6498   */\n      dup7\n        /* \"#utility.yul\":6485:6507   */\n      add\n        /* \"#utility.yul\":6464:6517   */\n      tag_122\n      jump\t// in\n    tag_238:\n        /* \"#utility.yul\":6454:6517   */\n      swap2\n      pop\n        /* \"#utility.yul\":6409:6527   */\n      pop\n        /* \"#utility.yul\":6060:6534   */\n      swap3\n      pop\n      swap3\n      swap1\n      pop\n      jump\t// out\n        /* \"#utility.yul\":6540:6720   */\n    tag_140:\n        /* \"#utility.yul\":6588:6665   */\n      0x4e487b7100000000000000000000000000000000000000000000000000000000\n        /* \"#utility.yul\":6585:6586   */\n      0x00\n        /* \"#utility.yul\":6578:6666   */\n      mstore\n        /* \"#utility.yul\":6685:6689   */\n      0x22\n        /* \"#utility.yul\":6682:6683   */\n      0x04\n        /* \"#utility.yul\":6675:6690   */\n      mstore\n        /* \"#utility.yul\":6709:6713   */\n      0x24\n        /* \"#utility.yul\":6706:6707   */\n      0x00\n        /* \"#utility.yul\":6699:6714   */\n      revert\n        /* \"#utility.yul\":6726:7046   */\n    tag_69:\n        /* \"#utility.yul\":6770:6776   */\n      0x00\n        /* \"#utility.yul\":6807:6808   */\n      0x02\n        /* \"#utility.yul\":6801:6805   */\n      dup3\n        /* \"#utility.yul\":6797:6809   */\n      div\n        /* \"#utility.yul\":6787:6809   */\n      swap1\n      pop\n        /* \"#utility.yul\":6854:6855   */\n      0x01\n        /* \"#utility.yul\":6848:6852   */\n      dup3\n        /* \"#utility.yul\":6844:6856   */\n      and\n        /* \"#utility.yul\":6875:6893   */\n      dup1\n        /* \"#utility.yul\":6865:6946   */\n      tag_241\n      jumpi\n        /* \"#utility.yul\":6931:6935   */\n      0x7f\n        /* \"#utility.yul\":6923:6929   */\n      dup3\n        /* \"#utility.yul\":6919:6936   */\n      and\n        /* \"#utility.yul\":6909:6936   */\n      swap2\n      pop\n        /* \"#utility.yul\":6865:6946   */\n    tag_241:\n        /* \"#utility.yul\":6993:6995   */\n      0x20\n        /* \"#utility.yul\":6985:6991   */\n      dup3\n        /* \"#utility.yul\":6982:6996   */\n      lt\n        /* \"#utility.yul\":6962:6980   */\n      dup2\n        /* \"#utility.yul\":6959:6997   */\n      sub\n        /* \"#utility.yul\":6956:7040   */\n      tag_242\n      jumpi\n        /* \"#utility.yul\":7012:7030   */\n      tag_243\n      tag_140\n      jump\t// in\n    tag_243:\n        /* \"#utility.yul\":6956:7040   */\n    tag_242:\n        /* \"#utility.yul\":6777:7046   */\n      pop\n        /* \"#utility.yul\":6726:7046   */\n      swap2\n      swap1\n      pop\n      jump\t// out\n        /* \"#utility.yul\":7052:7232   */\n    tag_141:\n        /* \"#utility.yul\":7100:7177   */\n      0x4e487b7100000000000000000000000000000000000000000000000000000000\n        /* \"#utility.yul\":7097:7098   */\n      0x00\n        /* \"#utility.yul\":7090:7178   */\n      mstore\n        /* \"#utility.yul\":7197:7201   */\n      0x11\n        /* \"#utility.yul\":7194:7195   */\n      0x04\n        /* \"#utility.yul\":7187:7202   */\n      mstore\n        /* \"#utility.yul\":7221:7225   */\n      0x24\n        /* \"#utility.yul\":7218:7219   */\n      0x00\n        /* \"#utility.yul\":7211:7226   */\n      revert\n        /* \"#utility.yul\":7238:7432   */\n    tag_79:\n        /* \"#utility.yul\":7278:7282   */\n      0x00\n        /* \"#utility.yul\":7298:7318   */\n      tag_246\n        /* \"#utility.yul\":7316:7317   */\n      dup3\n        /* \"#utility.yul\":7298:7318   */\n      tag_120\n      jump\t// in\n    tag_246:\n        /* \"#utility.yul\":7293:7318   */\n      swap2\n      pop\n        /* \"#utility.yul\":7332:7352   */\n      tag_247\n        /* \"#utility.yul\":7350:7351   */\n      dup4\n        /* \"#utility.yul\":7332:7352   */\n      tag_120\n      jump\t// in\n    tag_247:\n        /* \"#utility.yul\":7327:7352   */\n      swap3\n      pop\n        /* \"#utility.yul\":7376:7377   */\n      dup3\n        /* \"#utility.yul\":7373:7374   */\n      dup3\n        /* \"#utility.yul\":7369:7378   */\n      sub\n        /* \"#utility.yul\":7361:7378   */\n      swap1\n      pop\n        /* \"#utility.yul\":7400:7401   */\n      dup2\n        /* \"#utility.yul\":7394:7398   */\n      dup2\n        /* \"#utility.yul\":7391:7402   */\n      gt\n        /* \"#utility.yul\":7388:7425   */\n      iszero\n      tag_248\n      jumpi\n        /* \"#utility.yul\":7405:7423   */\n      tag_249\n      tag_141\n      jump\t// in\n    tag_249:\n        /* \"#utility.yul\":7388:7425   */\n    tag_248:\n        /* \"#utility.yul\":7238:7432   */\n      swap3\n      swap2\n      pop\n      pop\n      jump\t// out\n        /* \"#utility.yul\":7438:7618   */\n    tag_142:\n        /* \"#utility.yul\":7578:7610   */\n      0x446561646c696e65206d75737420626520696e20746865206675747572650000\n        /* \"#utility.yul\":7574:7575   */\n      0x00\n        /* \"#utility.yul\":7566:7572   */\n      dup3\n        /* \"#utility.yul\":7562:7576   */\n      add\n        /* \"#utility.yul\":7555:7611   */\n      mstore\n        /* \"#utility.yul\":7438:7618   */\n      pop\n      jump\t// out\n        /* \"#utility.yul\":7624:7990   */\n    tag_143:\n        /* \"#utility.yul\":7766:7769   */\n      0x00\n        /* \"#utility.yul\":7787:7854   */\n      tag_252\n        /* \"#utility.yul\":7851:7853   */\n      0x1e\n        /* \"#utility.yul\":7846:7849   */\n      dup4\n        /* \"#utility.yul\":7787:7854   */\n      tag_124\n      jump\t// in\n    tag_252:\n        /* \"#utility.yul\":7780:7854   */\n      swap2\n      pop\n        /* \"#utility.yul\":7863:7956   */\n      tag_253\n        /* \"#utility.yul\":7952:7955   */\n      dup3\n        /* \"#utility.yul\":7863:7956   */\n      tag_142\n      jump\t// in\n    tag_253:\n        /* \"#utility.yul\":7981:7983   */\n      0x20\n        /* \"#utility.yul\":7976:7979   */\n      dup3\n        /* \"#utility.yul\":7972:7984   */\n      add\n        /* \"#utility.yul\":7965:7984   */\n      swap1\n      pop\n        /* \"#utility.yul\":7624:7990   */\n      swap2\n      swap1\n      pop\n      jump\t// out\n        /* \"#utility.yul\":7996:8415   */\n    tag_83:\n        /* \"#utility.yul\":8162:8166   */\n      0x00\n        /* \"#utility.yul\":8200:8202   */\n      0x20\n        /* \"#utility.yul\":8189:8198   */\n      dup3\n        /* \"#utility.yul\":8185:8203   */\n      add\n        /* \"#utility.yul\":8177:8203   */\n      swap1\n      pop\n        /* \"#utility.yul\":8249:8258   */\n      dup2\n        /* \"#utility.yul\":8243:8247   */\n      dup2\n        /* \"#utility.yul\":8239:8259   */\n      sub\n        /* \"#utility.yul\":8235:8236   */\n      0x00\n        /* \"#utility.yul\":8224:8233   */\n      dup4\n        /* \"#utility.yul\":8220:8237   */\n      add\n        /* \"#utility.yul\":8213:8260   */\n      mstore\n        /* \"#utility.yul\":8277:8408   */\n      tag_255\n        /* \"#utility.yul\":8403:8407   */\n      dup2\n        /* \"#utility.yul\":8277:8408   */\n      tag_143\n      jump\t// in\n    tag_255:\n        /* \"#utility.yul\":8269:8408   */\n      swap1\n      pop\n        /* \"#utility.yul\":7996:8415   */\n      swap2\n      swap1\n      pop\n      jump\t// out\n        /* \"#utility.yul\":8421:8562   */\n    tag_144:\n        /* \"#utility.yul\":8470:8474   */\n      0x00\n        /* \"#utility.yul\":8493:8496   */\n      dup2\n        /* \"#utility.yul\":8485:8496   */\n      swap1\n      pop\n        /* \"#utility.yul\":8516:8519   */\n      dup2\n        /* \"#utility.yul\":8513:8514   */\n      0x00\n        /* \"#utility.yul\":8506:8520   */\n      mstore\n        /* \"#utility.yul\":8550:8554   */\n      0x20\n        /* \"#utility.yul\":8547:8548   */\n      0x00\n        /* \"#utility.yul\":8537:8555   */\n      keccak256\n        /* \"#utility.yul\":8529:8555   */\n      swap1\n      pop\n        /* \"#utility.yul\":8421:8562   */\n      swap2\n      swap1\n      pop\n      jump\t// out\n        /* \"#utility.yul\":8568:8661   */\n    tag_145:\n        /* \"#utility.yul\":8605:8611   */\n      0x00\n        /* \"#utility.yul\":8652:8654   */\n      0x20\n        /* \"#utility.yul\":8647:8649   */\n      0x1f\n        /* \"#utility.yul\":8640:8645   */\n      dup4\n        /* \"#utility.yul\":8636:8650   */\n      add\n        /* \"#utility.yul\":8632:8655   */\n      div\n        /* \"#utility.yul\":8622:8655   */\n      swap1\n      pop\n        /* \"#utility.yul\":8568:8661   */\n      swap2\n      swap1\n      pop\n      jump\t// out\n        /* \"#utility.yul\":8667:8774   */\n    tag_146:\n        /* \"#utility.yul\":8711:8719   */\n      0x00\n        /* \"#utility.yul\":8761:8766   */\n      dup3\n        /* \"#utility.yul\":8755:8759   */\n      dup3\n        /* \"#utility.yul\":8751:8767   */\n      shl\n        /* \"#utility.yul\":8730:8767   */\n      swap1\n      pop\n        /* \"#utility.yul\":8667:8774   */\n      swap3\n      swap2\n      pop\n      pop\n      jump\t// out\n        /* \"#utility.yul\":8780:9173   */\n    tag_147:\n        /* \"#utility.yul\":8849:8855   */\n      0x00\n        /* \"#utility.yul\":8899:8900   */\n      0x08\n        /* \"#utility.yul\":8887:8897   */\n      dup4\n        /* \"#utility.yul\":8883:8901   */\n      mul\n        /* \"#utility.yul\":8922:9019   */\n      tag_260\n        /* \"#utility.yul\":8952:9018   */\n      0xffffffffffffffffffffffffffffffffffffffffffffffffffffffffffffffff\n        /* \"#utility.yul\":8941:8950   */\n      dup3\n        /* \"#utility.yul\":8922:9019   */\n      tag_146\n      jump\t// in\n    tag_260:\n        /* \"#utility.yul\":9040:9079   */\n      tag_261\n        /* \"#utility.yul\":9070:9078   */\n      dup7\n        /* \"#utility.yul\":9059:9068   */\n      dup4\n        /* \"#utility.yul\":9040:9079   */\n      tag_146\n      jump\t// in\n    tag_261:\n        /* \"#utility.yul\":9028:9079   */\n      swap6\n      pop\n        /* \"#utility.yul\":9112:9116   */\n      dup1\n        /* \"#utility.yul\":9108:9117   */\n      not\n        /* \"#utility.yul\":9101:9106   */\n      dup5\n        /* \"#utility.yul\":9097:9118   */\n      and\n        /* \"#utility.yul\":9088:9118   */\n      swap4\n      pop\n        /* \"#utility.yul\":9161:9165   */\n      dup1\n        /* \"#utility.yul\":9151:9159   */\n      dup7\n        /* \"#utility.yul\":9147:9166   */\n      and\n        /* \"#utility.yul\":9140:9145   */\n      dup5\n        /* \"#utility.yul\":9137:9167   */\n      or\n        /* \"#utility.yul\":9127:9167   */\n      swap3\n      pop\n        /* \"#utility.yul\":8856:9173   */\n      pop\n      pop\n        /* \"#utility.yul\":8780:9173   */\n      swap4\n      swap3\n      pop\n      pop\n      pop\n      jump\t// out\n        /* \"#utility.yul\":9179:9239   */\n    tag_148:\n        /* \"#utility.yul\":9207:9210   */\n      0x00\n        /* \"#utility.yul\":9228:9233   */\n      dup2\n        /* \"#utility.yul\":9221:9233   */\n      swap1\n      pop\n        /* \"#utility.yul\":9179:9239   */\n      swap2\n      swap1\n      pop\n      jump\t// out\n        /* \"#utility.yul\":9245:9387   */\n    tag_149:\n        /* \"#utility.yul\":9295:9304   */\n      0x00\n        /* \"#utility.yul\":9328:9381   */\n      tag_264\n        /* \"#utility.yul\":9346:9380   */\n      tag_265\n        /* \"#utility.yul\":9355:9379   */\n      tag_266\n        /* \"#utility.yul\":9373:9378   */\n      dup5\n        /* \"#utility.yul\":9355:9379   */\n      tag_120\n      jump\t// in\n    tag_266:\n        /* \"#utility.yul\":9346:9380   */\n      tag_148\n      jump\t// in\n    tag_265:\n        /* \"#utility.yul\":9328:9381   */\n      tag_120\n      jump\t// in\n    tag_264:\n        /* \"#utility.yul\":9315:9381   */\n      swap1\n      pop\n        /* \"#utility.yul\":9245:9387   */\n      swap2\n      swap1\n      pop\n      jump\t// out\n        /* \"#utility.yul\":9393:9468   */\n    tag_150:\n        /* \"#utility.yul\":9436:9439   */\n      0x00\n        /* \"#utility.yul\":9457:9462   */\n      dup2\n        /* \"#utility.yul\":9450:9462   */\n      swap1\n      pop\n        /* \"#utility.yul\":9393:9468   */\n      swap2\n      swap1\n      pop\n      jump\t// out\n        /* \"#utility.yul\":9474:9743   */\n    tag_151:\n        /* \"#utility.yul\":9584:9623   */\n      tag_269\n        /* \"#utility.yul\":9615:9622   */\n      dup4\n        /* \"#utility.yul\":9584:9623   */\n      tag_149\n      jump\t// in\n    tag_269:\n        /* \"#utility.yul\":9645:9736   */\n      tag_270\n        /* \"#utility.yul\":9694:9735   */\n      tag_271\n        /* \"#utility.yul\":9718:9734   */\n      dup3\n        /* \"#utility.yul\":9694:9735   */\n      tag_150\n      jump\t// in\n    tag_271:\n        /* \"#utility.yul\":9686:9692   */\n      dup5\n        /* \"#utility.yul\":9679:9683   */\n      dup5\n        /* \"#utility.yul\":9673:9684   */\n      sload\n        /* \"#utility.yul\":9645:9736   */\n      tag_147\n      jump\t// in\n    tag_270:\n        /* \"#utility.yul\":9639:9643   */\n      dup3\n        /* \"#utility.yul\":9632:9737   */\n      sstore\n        /* \"#utility.yul\":9550:9743   */\n      pop\n        /* \"#utility.yul\":9474:9743   */\n      pop\n      pop\n      pop\n      jump\t// out\n        /* \"#utility.yul\":9749:9822   */\n    tag_152:\n        /* \"#utility.yul\":9794:9797   */\n      0x00\n        /* \"#utility.yul\":9749:9822   */\n      swap1\n      jump\t// out\n        /* \"#utility.yul\":9828:10017   */\n    tag_153:\n        /* \"#utility.yul\":9905:9937   */\n      tag_274\n      tag_152\n      jump\t// in\n    tag_274:\n        /* \"#utility.yul\":9946:10011   */\n      tag_275\n        /* \"#utility.yul\":10004:10010   */\n      dup2\n        /* \"#utility.yul\":9996:10002   */\n      dup5\n        /* \"#utility.yul\":9990:9994   */\n      dup5\n        /* \"#utility.yul\":9946:10011   */\n      tag_151\n      jump\t// in\n    tag_275:\n        /* \"#utility.yul\":9881:10017   */\n      pop\n        /* \"#utility.yul\":9828:10017   */\n      pop\n      pop\n      jump\t// out\n        /* \"#utility.yul\":10023:10209   */\n    tag_154:\n        /* \"#utility.yul\":10083:10203   */\n    tag_277:\n        /* \"#utility.yul\":10100:10103   */\n      dup2\n        /* \"#utility.yul\":10093:10098   */\n      dup2\n        /* \"#utility.yul\":10090:10104   */\n      lt\n        /* \"#utility.yul\":10083:10203   */\n      iszero\n      tag_279\n      jumpi\n        /* \"#utility.yul\":10154:10193   */\n      tag_280\n        /* \"#utility.yul\":10191:10192   */\n      0x00\n        /* \"#utility.yul\":10184:10189   */\n      dup3\n        /* \"#utility.yul\":10154:10193   */\n      tag_153\n      jump\t// in\n    tag_280:\n        /* \"#utility.yul\":10127:10128   */\n      0x01\n        /* \"#utility.yul\":10120:10125   */\n      dup2\n        /* \"#utility.yul\":10116:10129   */\n      add\n        /* \"#utility.yul\":10107:10129   */\n      swap1\n      pop\n        /* \"#utility.yul\":10083:10203   */\n      jump(tag_277)\n    tag_279:\n        /* \"#utility.yul\":10023:10209   */\n      pop\n      pop\n      jump\t// out\n        /* \"#utility.yul\":10215:10758   */\n    tag_155:\n        /* \"#utility.yul\":10316:10318   */\n      0x1f\n        /* \"#utility.yul\":10311:10314   */\n      dup3\n        /* \"#utility.yul\":10308:10319   */\n      gt\n        /* \"#utility.yul\":10305:10751   */\n      iszero\n      tag_282\n      jumpi\n        /* \"#utility.yul\":10350:10388   */\n      tag_283\n        /* \"#utility.yul\":10382:10387   */\n      dup2\n        /* \"#utility.yul\":10350:10388   */\n      tag_144\n      jump\t// in\n    tag_283:\n        /* \"#utility.yul\":10434:10463   */\n      tag_284\n        /* \"#utility.yul\":10452:10462   */\n      dup5\n        /* \"#utility.yul\":10434:10463   */\n      tag_145\n      jump\t// in\n    tag_284:\n        /* \"#utility.yul\":10424:10432   */\n      dup2\n        /* \"#utility.yul\":10420:10464   */\n      add\n        /* \"#utility.yul\":10617:10619   */\n      0x20\n        /* \"#utility.yul\":10605:10615   */\n      dup6\n        /* \"#utility.yul\":10602:10620   */\n      lt\n        /* \"#utility.yul\":10599:10648   */\n      iszero\n      tag_285\n      jumpi\n        /* \"#utility.yul\":10638:10646   */\n      dup2\n        /* \"#utility.yul\":10623:10646   */\n      swap1\n      pop\n        /* \"#utility.yul\":10599:10648   */\n    tag_285:\n        /* \"#utility.yul\":10661:10741   */\n      tag_286\n        /* \"#utility.yul\":10717:10739   */\n      tag_287\n        /* \"#utility.yul\":10735:10738   */\n      dup6\n        /* \"#utility.yul\":10717:10739   */\n      tag_145\n      jump\t// in\n    tag_287:\n        /* \"#utility.yul\":10707:10715   */\n      dup4\n        /* \"#utility.yul\":10703:10740   */\n      add\n        /* \"#utility.yul\":10690:10701   */\n      dup3\n        /* \"#utility.yul\":10661:10741   */\n      tag_154\n      jump\t// in\n    tag_286:\n        /* \"#utility.yul\":10320:10751   */\n      pop\n      pop\n        /* \"#utility.yul\":10305:10751   */\n    tag_282:\n        /* \"#utility.yul\":10215:10758   */\n      pop\n      pop\n      pop\n      jump\t// out\n        /* \"#utility.yul\":10764:10881   */\n    tag_156:\n        /* \"#utility.yul\":10818:10826   */\n      0x00\n        /* \"#utility.yul\":10868:10873   */\n      dup3\n        /* \"#utility.yul\":10862:10866   */\n      dup3\n        /* \"#utility.yul\":10858:10874   */\n      shr\n        /* \"#utility.yul\":10837:10874   */\n      swap1\n      pop\n        /* \"#utility.yul\":10764:10881   */\n      swap3\n      swap2\n      pop\n      pop\n      jump\t// out\n        /* \"#utility.yul\":10887:11056   */\n    tag_157:\n        /* \"#utility.yul\":10931:10937   */\n      0x00\n        /* \"#utility.yul\":10964:11015   */\n      tag_290\n        /* \"#utility.yul\":11012:11013   */\n      0x00\n        /* \"#utility.yul\":11008:11014   */\n      not\n        /* \"#utility.yul\":11000:11005   */\n      dup5\n        /* \"#utility.yul\":10997:10998   */\n      0x08\n        /* \"#utility.yul\":10993:11006   */\n      mul\n        /* \"#utility.yul\":10964:11015   */\n      tag_156\n      jump\t// in\n    tag_290:\n        /* \"#utility.yul\":10960:11016   */\n      not\n        /* \"#utility.yul\":11045:11049   */\n      dup1\n        /* \"#utility.yul\":11039:11043   */\n      dup4\n        /* \"#utility.yul\":11035:11050   */\n      and\n        /* \"#utility.yul\":11025:11050   */\n      swap2\n      pop\n        /* \"#utility.yul\":10938:11056   */\n      pop\n        /* \"#utility.yul\":10887:11056   */\n      swap3\n      swap2\n      pop\n      pop\n      jump\t// out\n        /* \"#utility.yul\":11061:11356   */\n    tag_158:\n        /* \"#utility.yul\":11137:11141   */\n      0x00\n        /* \"#utility.yul\":11283:11312   */\n      tag_292\n        /* \"#utility.yul\":11308:11311   */\n      dup4\n        /* \"#utility.yul\":11302:11306   */\n      dup4\n        /* \"#utility.yul\":11283:11312   */\n      tag_157\n      jump\t// in\n    tag_292:\n        /* \"#utility.yul\":11275:11312   */\n      swap2\n      pop\n        /* \"#utility.yul\":11345:11348   */\n      dup3\n        /* \"#utility.yul\":11342:11343   */\n      0x02\n        /* \"#utility.yul\":11338:11349   */\n      mul\n        /* \"#utility.yul\":11332:11336   */\n      dup3\n        /* \"#utility.yul\":11329:11350   */\n      or\n        /* \"#utility.yul\":11321:11350   */\n      swap1\n      pop\n        /* \"#utility.yul\":11061:11356   */\n      swap3\n      swap2\n      pop\n      pop\n      jump\t// out\n        /* \"#utility.yul\":11361:12756   */\n    tag_85:\n        /* \"#utility.yul\":11478:11515   */\n      tag_294\n        /* \"#utility.yul\":11511:11514   */\n      dup3\n        /* \"#utility.yul\":11478:11515   */\n      tag_123\n      jump\t// in\n    tag_294:\n        /* \"#utility.yul\":11580:11598   */\n      0xffffffffffffffff\n        /* \"#utility.yul\":11572:11578   */\n      dup2\n        /* \"#utility.yul\":11569:11599   */\n      gt\n        /* \"#utility.yul\":11566:11622   */\n      iszero\n      tag_295\n      jumpi\n        /* \"#utility.yul\":11602:11620   */\n      tag_296\n      tag_133\n      jump\t// in\n    tag_296:\n        /* \"#utility.yul\":11566:11622   */\n    tag_295:\n        /* \"#utility.yul\":11646:11684   */\n      tag_297\n        /* \"#utility.yul\":11678:11682   */\n      dup3\n        /* \"#utility.yul\":11672:11683   */\n      sload\n        /* \"#utility.yul\":11646:11684   */\n      tag_69\n      jump\t// in\n    tag_297:\n        /* \"#utility.yul\":11731:11798   */\n      tag_298\n        /* \"#utility.yul\":11791:11797   */\n      dup3\n        /* \"#utility.yul\":11783:11789   */\n      dup3\n        /* \"#utility.yul\":11777:11781   */\n      dup6\n        /* \"#utility.yul\":11731:11798   */\n      tag_155\n      jump\t// in\n    tag_298:\n        /* \"#utility.yul\":11825:11826   */\n      0x00\n        /* \"#utility.yul\":11849:11853   */\n      0x20\n        /* \"#utility.yul\":11836:11853   */\n      swap1\n      pop\n        /* \"#utility.yul\":11881:11883   */\n      0x1f\n        /* \"#utility.yul\":11873:11879   */\n      dup4\n        /* \"#utility.yul\":11870:11884   */\n      gt\n        /* \"#utility.yul\":11898:11899   */\n      0x01\n        /* \"#utility.yul\":11893:12511   */\n      dup2\n      eq\n      tag_300\n      jumpi\n        /* \"#utility.yul\":12555:12556   */\n      0x00\n        /* \"#utility.yul\":12572:12578   */\n      dup5\n        /* \"#utility.yul\":12569:12646   */\n      iszero\n      tag_301\n      jumpi\n        /* \"#utility.yul\":12621:12630   */\n      dup3\n        /* \"#utility.yul\":12616:12619   */\n      dup8\n        /* \"#utility.yul\":12612:12631   */\n      add\n        /* \"#utility.yul\":12606:12632   */\n      mload\n        /* \"#utility.yul\":12597:12632   */\n      swap1\n      pop\n        /* \"#utility.yul\":12569:12646   */\n    tag_301:\n        /* \"#utility.yul\":12672:12739   */\n      tag_302\n        /* \"#utility.yul\":12732:12738   */\n      dup6\n        /* \"#utility.yul\":12725:12730   */\n      dup3\n        /* \"#utility.yul\":12672:12739   */\n      tag_158\n      jump\t// in\n    tag_302:\n        /* \"#utility.yul\":12666:12670   */\n      dup7\n        /* \"#utility.yul\":12659:12740   */\n      sstore\n        /* \"#utility.yul\":12528:12750   */\n      pop\n        /* \"#utility.yul\":11863:12750   */\n      jump(tag_299)\n        /* \"#utility.yul\":11893:12511   */\n    tag_300:\n        /* \"#utility.yul\":11945:11949   */\n      0x1f\n        /* \"#utility.yul\":11941:11950   */\n      not\n        /* \"#utility.yul\":11933:11939   */\n      dup5\n        /* \"#utility.yul\":11929:11951   */\n      and\n        /* \"#utility.yul\":11979:12016   */\n      tag_303\n        /* \"#utility.yul\":12011:12015   */\n      dup7\n        /* \"#utility.yul\":11979:12016   */\n      tag_144\n      jump\t// in\n    tag_303:\n        /* \"#utility.yul\":12038:12039   */\n      0x00\n        /* \"#utility.yul\":12052:12260   */\n    tag_304:\n        /* \"#utility.yul\":12066:12073   */\n      dup3\n        /* \"#utility.yul\":12063:12064   */\n      dup2\n        /* \"#utility.yul\":12060:12074   */\n      lt\n        /* \"#utility.yul\":12052:12260   */\n      iszero\n      tag_306\n      jumpi\n        /* \"#utility.yul\":12145:12154   */\n      dup5\n        /* \"#utility.yul\":12140:12143   */\n      dup10\n        /* \"#utility.yul\":12136:12155   */\n      add\n        /* \"#utility.yul\":12130:12156   */\n      mload\n        /* \"#utility.yul\":12122:12128   */\n      dup3\n        /* \"#utility.yul\":12115:12157   */\n      sstore\n        /* \"#utility.yul\":12196:12197   */\n      0x01\n        /* \"#utility.yul\":12188:12194   */\n      dup3\n        /* \"#utility.yul\":12184:12198   */\n      add\n        /* \"#utility.yul\":12174:12198   */\n      swap2\n      pop\n        /* \"#utility.yul\":12243:12245   */\n      0x20\n        /* \"#utility.yul\":12232:12241   */\n      dup6\n        /* \"#utility.yul\":12228:12246   */\n      add\n        /* \"#utility.yul\":12215:12246   */\n      swap5\n      pop\n        /* \"#utility.yul\":12089:12093   */\n      0x20\n        /* \"#utility.yul\":12086:12087   */\n      dup2\n        /* \"#utility.yul\":12082:12094   */\n      add\n        /* \"#utility.yul\":12077:12094   */\n      swap1\n      pop\n        /* \"#utility.yul\":12052:12260   */\n      jump(tag_304)\n    tag_306:\n        /* \"#utility.yul\":12288:12294   */\n      dup7\n        /* \"#utility.yul\":12279:12286   */\n      dup4\n        /* \"#utility.yul\":12276:12295   */\n      lt\n        /* \"#utility.yul\":12273:12452   */\n      iszero\n      tag_307\n      jumpi\n        /* \"#utility.yul\":12346:12355   */\n      dup5\n        /* \"#utility.yul\":12341:12344   */\n      dup10\n        /* \"#utility.yul\":12337:12356   */\n      add\n        /* \"#utility.yul\":12331:12357   */\n      mload\n        /* \"#utility.yul\":12389:12437   */\n      tag_308\n        /* \"#utility.yul\":12431:12435   */\n      0x1f\n        /* \"#utility.yul\":12423:12429   */\n      dup10\n        /* \"#utility.yul\":12419:12436   */\n      and\n        /* \"#utility.yul\":12408:12417   */\n      dup3\n        /* \"#utility.yul\":12389:12437   */\n      tag_157\n      jump\t// in\n    tag_308:\n        /* \"#utility.yul\":12381:12387   */\n      dup4\n        /* \"#utility.yul\":12374:12438   */\n      sstore\n        /* \"#utility.yul\":12296:12452   */\n      pop\n        /* \"#utility.yul\":12273:12452   */\n    tag_307:\n        /* \"#utility.yul\":12498:12499   */\n      0x01\n        /* \"#utility.yul\":12494:12495   */\n      0x02\n        /* \"#utility.yul\":12486:12492   */\n      dup9\n        /* \"#utility.yul\":12482:12496   */\n      mul\n        /* \"#utility.yul\":12478:12500   */\n      add\n        /* \"#utility.yul\":12472:12476   */\n      dup9\n        /* \"#utility.yul\":12465:12501   */\n      sstore\n        /* \"#utility.yul\":11900:12511   */\n      pop\n      pop\n      pop\n        /* \"#utility.yul\":11863:12750   */\n    tag_299:\n      pop\n        /* \"#utility.yul\":11453:12756   */\n      pop\n      pop\n      pop\n        /* \"#utility.yul\":11361:12756   */\n      pop\n      pop\n      jump\t// out\n        /* \"#utility.yul\":12762:12995   */\n    tag_87:\n        /* \"#utility.yul\":12801:12804   */\n      0x00\n        /* \"#utility.yul\":12824:12848   */\n      tag_310\n        /* \"#utility.yul\":12842:12847   */\n      dup3\n        /* \"#utility.yul\":12824:12848   */\n      tag_120\n      jump\t// in\n    tag_310:\n        /* \"#utility.yul\":12815:12848   */\n      swap2\n      pop\n        /* \"#utility.yul\":12870:12936   */\n      0xffffffffffffffffffffffffffffffffffffffffffffffffffffffffffffffff\n        /* \"#utility.yul\":12863:12868   */\n      dup3\n        /* \"#utility.yul\":12860:12937   */\n      sub\n        /* \"#utility.yul\":12857:12960   */\n      tag_311\n      jumpi\n        /* \"#utility.yul\":12940:12958   */\n      tag_312\n      tag_141\n      jump\t// in\n    tag_312:\n        /* \"#utility.yul\":12857:12960   */\n    tag_311:\n        /* \"#utility.yul\":12987:12988   */\n      0x01\n        /* \"#utility.yul\":12980:12985   */\n      dup3\n        /* \"#utility.yul\":12976:12989   */\n      add\n        /* \"#utility.yul\":12969:12989   */\n      swap1\n      pop\n        /* \"#utility.yul\":12762:12995   */\n      swap2\n      swap1\n      pop\n      jump\t// out\n        /* \"#utility.yul\":13001:13222   */\n    tag_159:\n        /* \"#utility.yul\":13141:13175   */\n      0x50726f6a65637420646561646c696e6520697320616c72656164792070617373\n        /* \"#utility.yul\":13137:13138   */\n      0x00\n        /* \"#utility.yul\":13129:13135   */\n      dup3\n        /* \"#utility.yul\":13125:13139   */\n      add\n        /* \"#utility.yul\":13118:13176   */\n      mstore\n        /* \"#utility.yul\":13210:13214   */\n      0x6564000000000000000000000000000000000000000000000000000000000000\n        /* \"#utility.yul\":13205:13207   */\n      0x20\n        /* \"#utility.yul\":13197:13203   */\n      dup3\n        /* \"#utility.yul\":13193:13208   */\n      add\n        /* \"#utility.yul\":13186:13215   */\n      mstore\n        /* \"#utility.yul\":13001:13222   */\n      pop\n      jump\t// out\n        /* \"#utility.yul\":13228:13594   */\n    tag_160:\n        /* \"#utility.yul\":13370:13373   */\n      0x00\n        /* \"#utility.yul\":13391:13458   */\n      tag_315\n        /* \"#utility.yul\":13455:13457   */\n      0x22\n        /* \"#utility.yul\":13450:13453   */\n      dup4\n        /* \"#utility.yul\":13391:13458   */\n      tag_124\n      jump\t// in\n    tag_315:\n        /* \"#utility.yul\":13384:13458   */\n      swap2\n      pop\n        /* \"#utility.yul\":13467:13560   */\n      tag_316\n        /* \"#utility.yul\":13556:13559   */\n      dup3\n        /* \"#utility.yul\":13467:13560   */\n      tag_159\n      jump\t// in\n    tag_316:\n        /* \"#utility.yul\":13585:13587   */\n      0x40\n        /* \"#utility.yul\":13580:13583   */\n      dup3\n        /* \"#utility.yul\":13576:13588   */\n      add\n        /* \"#utility.yul\":13569:13588   */\n      swap1\n      pop\n        /* \"#utility.yul\":13228:13594   */\n      swap2\n      swap1\n      pop\n      jump\t// out\n        /* \"#utility.yul\":13600:14019   */\n    tag_93:\n        /* \"#utility.yul\":13766:13770   */\n      0x00\n        /* \"#utility.yul\":13804:13806   */\n      0x20\n        /* \"#utility.yul\":13793:13802   */\n      dup3\n        /* \"#utility.yul\":13789:13807   */\n      add\n        /* \"#utility.yul\":13781:13807   */\n      swap1\n      pop\n        /* \"#utility.yul\":13853:13862   */\n      dup2\n        /* \"#utility.yul\":13847:13851   */\n      dup2\n        /* \"#utility.yul\":13843:13863   */\n      sub\n        /* \"#utility.yul\":13839:13840   */\n      0x00\n        /* \"#utility.yul\":13828:13837   */\n      dup4\n        /* \"#utility.yul\":13824:13841   */\n      add\n        /* \"#utility.yul\":13817:13864   */\n      mstore\n        /* \"#utility.yul\":13881:14012   */\n      tag_318\n        /* \"#utility.yul\":14007:14011   */\n      dup2\n        /* \"#utility.yul\":13881:14012   */\n      tag_160\n      jump\t// in\n    tag_318:\n        /* \"#utility.yul\":13873:14012   */\n      swap1\n      pop\n        /* \"#utility.yul\":13600:14019   */\n      swap2\n      swap1\n      pop\n      jump\t// out\n        /* \"#utility.yul\":14025:14200   */\n    tag_161:\n        /* \"#utility.yul\":14165:14192   */\n      0x50726f6a65637420697320616c72656164792066756e64656400000000000000\n        /* \"#utility.yul\":14161:14162   */\n      0x00\n        /* \"#utility.yul\":14153:14159   */\n      dup3\n        /* \"#utility.yul\":14149:14163   */\n      add\n        /* \"#utility.yul\":14142:14193   */\n      mstore\n        /* \"#utility.yul\":14025:14200   */\n      pop\n      jump\t// out\n        /* \"#utility.yul\":14206:14572   */\n    tag_162:\n        /* \"#utility.yul\":14348:14351   */\n      0x00\n        /* \"#utility.yul\":14369:14436   */\n      tag_321\n        /* \"#utility.yul\":14433:14435   */\n      0x19\n        /* \"#utility.yul\":14428:14431   */\n      dup4\n        /* \"#utility.yul\":14369:14436   */\n      tag_124\n      jump\t// in\n    tag_321:\n        /* \"#utility.yul\":14362:14436   */\n      swap2\n      pop\n        /* \"#utility.yul\":14445:14538   */\n      tag_322\n        /* \"#utility.yul\":14534:14537   */\n      dup3\n        /* \"#utility.yul\":14445:14538   */\n      tag_161\n      jump\t// in\n    tag_322:\n        /* \"#utility.yul\":14563:14565   */\n      0x20\n        /* \"#utility.yul\":14558:14561   */\n      dup3\n        /* \"#utility.yul\":14554:14566   */\n      add\n        /* \"#utility.yul\":14547:14566   */\n      swap1\n      pop\n        /* \"#utility.yul\":14206:14572   */\n      swap2\n      swap1\n      pop\n      jump\t// out\n        /* \"#utility.yul\":14578:14997   */\n    tag_96:\n        /* \"#utility.yul\":14744:14748   */\n      0x00\n        /* \"#utility.yul\":14782:14784   */\n      0x20\n        /* \"#utility.yul\":14771:14780   */\n      dup3\n        /* \"#utility.yul\":14767:14785   */\n      add\n        /* \"#utility.yul\":14759:14785   */\n      swap1\n      pop\n        /* \"#utility.yul\":14831:14840   */\n      dup2\n        /* \"#utility.yul\":14825:14829   */\n      dup2\n        /* \"#utility.yul\":14821:14841   */\n      sub\n        /* \"#utility.yul\":14817:14818   */\n      0x00\n        /* \"#utility.yul\":14806:14815   */\n      dup4\n        /* \"#utility.yul\":14802:14819   */\n      add\n        /* \"#utility.yul\":14795:14842   */\n      mstore\n        /* \"#utility.yul\":14859:14990   */\n      tag_324\n        /* \"#utility.yul\":14985:14989   */\n      dup2\n        /* \"#utility.yul\":14859:14990   */\n      tag_162\n      jump\t// in\n    tag_324:\n        /* \"#utility.yul\":14851:14990   */\n      swap1\n      pop\n        /* \"#utility.yul\":14578:14997   */\n      swap2\n      swap1\n      pop\n      jump\t// out\n        /* \"#utility.yul\":15003:15182   */\n    tag_163:\n        /* \"#utility.yul\":15143:15174   */\n      0x4d7573742073656e6420736f6d652076616c7565206f66206574686572000000\n        /* \"#utility.yul\":15139:15140   */\n      0x00\n        /* \"#utility.yul\":15131:15137   */\n      dup3\n        /* \"#utility.yul\":15127:15141   */\n      add\n        /* \"#utility.yul\":15120:15175   */\n      mstore\n        /* \"#utility.yul\":15003:15182   */\n      pop\n      jump\t// out\n        /* \"#utility.yul\":15188:15554   */\n    tag_164:\n        /* \"#utility.yul\":15330:15333   */\n      0x00\n        /* \"#utility.yul\":15351:15418   */\n      tag_327\n        /* \"#utility.yul\":15415:15417   */\n      0x1d\n        /* \"#utility.yul\":15410:15413   */\n      dup4\n        /* \"#utility.yul\":15351:15418   */\n      tag_124\n      jump\t// in\n    tag_327:\n        /* \"#utility.yul\":15344:15418   */\n      swap2\n      pop\n        /* \"#utility.yul\":15427:15520   */\n      tag_328\n        /* \"#utility.yul\":15516:15519   */\n      dup3\n        /* \"#utility.yul\":15427:15520   */\n      tag_163\n      jump\t// in\n    tag_328:\n        /* \"#utility.yul\":15545:15547   */\n      0x20\n        /* \"#utility.yul\":15540:15543   */\n      dup3\n        /* \"#utility.yul\":15536:15548   */\n      add\n        /* \"#utility.yul\":15529:15548   */\n      swap1\n      pop\n        /* \"#utility.yul\":15188:15554   */\n      swap2\n      swap1\n      pop\n      jump\t// out\n        /* \"#utility.yul\":15560:15979   */\n    tag_99:\n        /* \"#utility.yul\":15726:15730   */\n      0x00\n        /* \"#utility.yul\":15764:15766   */\n      0x20\n        /* \"#utility.yul\":15753:15762   */\n      dup3\n        /* \"#utility.yul\":15749:15767   */\n      add\n        /* \"#utility.yul\":15741:15767   */\n      swap1\n      pop\n        /* \"#utility.yul\":15813:15822   */\n      dup2\n        /* \"#utility.yul\":15807:15811   */\n      dup2\n        /* \"#utility.yul\":15803:15823   */\n      sub\n        /* \"#utility.yul\":15799:15800   */\n      0x00\n        /* \"#utility.yul\":15788:15797   */\n      dup4\n        /* \"#utility.yul\":15784:15801   */\n      add\n        /* \"#utility.yul\":15777:15824   */\n      mstore\n        /* \"#utility.yul\":15841:15972   */\n      tag_330\n        /* \"#utility.yul\":15967:15971   */\n      dup2\n        /* \"#utility.yul\":15841:15972   */\n      tag_164\n      jump\t// in\n    tag_330:\n        /* \"#utility.yul\":15833:15972   */\n      swap1\n      pop\n        /* \"#utility.yul\":15560:15979   */\n      swap2\n      swap1\n      pop\n      jump\t// out\n        /* \"#utility.yul\":15985:16395   */\n    tag_101:\n        /* \"#utility.yul\":16025:16032   */\n      0x00\n        /* \"#utility.yul\":16048:16068   */\n      tag_332\n        /* \"#utility.yul\":16066:16067   */\n      dup3\n        /* \"#utility.yul\":16048:16068   */\n      tag_120\n      jump\t// in\n    tag_332:\n        /* \"#utility.yul\":16043:16068   */\n      swap2\n      pop\n        /* \"#utility.yul\":16082:16102   */\n      tag_333\n        /* \"#utility.yul\":16100:16101   */\n      dup4\n        /* \"#utility.yul\":16082:16102   */\n      tag_120\n      jump\t// in\n    tag_333:\n        /* \"#utility.yul\":16077:16102   */\n      swap3\n      pop\n        /* \"#utility.yul\":16137:16138   */\n      dup3\n        /* \"#utility.yul\":16134:16135   */\n      dup3\n        /* \"#utility.yul\":16130:16139   */\n      mul\n        /* \"#utility.yul\":16159:16189   */\n      tag_334\n        /* \"#utility.yul\":16177:16188   */\n      dup2\n        /* \"#utility.yul\":16159:16189   */\n      tag_120\n      jump\t// in\n    tag_334:\n        /* \"#utility.yul\":16148:16189   */\n      swap2\n      pop\n        /* \"#utility.yul\":16338:16339   */\n      dup3\n        /* \"#utility.yul\":16329:16336   */\n      dup3\n        /* \"#utility.yul\":16325:16340   */\n      div\n        /* \"#utility.yul\":16322:16323   */\n      dup5\n        /* \"#utility.yul\":16319:16341   */\n      eq\n        /* \"#utility.yul\":16299:16300   */\n      dup4\n        /* \"#utility.yul\":16292:16301   */\n      iszero\n        /* \"#utility.yul\":16272:16355   */\n      or\n        /* \"#utility.yul\":16249:16388   */\n      tag_335\n      jumpi\n        /* \"#utility.yul\":16368:16386   */\n      tag_336\n      tag_141\n      jump\t// in\n    tag_336:\n        /* \"#utility.yul\":16249:16388   */\n    tag_335:\n        /* \"#utility.yul\":16033:16395   */\n      pop\n        /* \"#utility.yul\":15985:16395   */\n      swap3\n      swap2\n      pop\n      pop\n      jump\t// out\n        /* \"#utility.yul\":16401:16581   */\n    tag_165:\n        /* \"#utility.yul\":16449:16526   */\n      0x4e487b7100000000000000000000000000000000000000000000000000000000\n        /* \"#utility.yul\":16446:16447   */\n      0x00\n        /* \"#utility.yul\":16439:16527   */\n      mstore\n        /* \"#utility.yul\":16546:16550   */\n      0x12\n        /* \"#utility.yul\":16543:16544   */\n      0x04\n        /* \"#utility.yul\":16536:16551   */\n      mstore\n        /* \"#utility.yul\":16570:16574   */\n      0x24\n        /* \"#utility.yul\":16567:16568   */\n      0x00\n        /* \"#utility.yul\":16560:16575   */\n      revert\n        /* \"#utility.yul\":16587:16772   */\n    tag_103:\n        /* \"#utility.yul\":16627:16628   */\n      0x00\n        /* \"#utility.yul\":16644:16664   */\n      tag_339\n        /* \"#utility.yul\":16662:16663   */\n      dup3\n        /* \"#utility.yul\":16644:16664   */\n      tag_120\n      jump\t// in\n    tag_339:\n        /* \"#utility.yul\":16639:16664   */\n      swap2\n      pop\n        /* \"#utility.yul\":16678:16698   */\n      tag_340\n        /* \"#utility.yul\":16696:16697   */\n      dup4\n        /* \"#utility.yul\":16678:16698   */\n      tag_120\n      jump\t// in\n    tag_340:\n        /* \"#utility.yul\":16673:16698   */\n      swap3\n      pop\n        /* \"#utility.yul\":16717:16718   */\n      dup3\n        /* \"#utility.yul\":16707:16742   */\n      tag_341\n      jumpi\n        /* \"#utility.yul\":16722:16740   */\n      tag_342\n      tag_165\n      jump\t// in\n    tag_342:\n        /* \"#utility.yul\":16707:16742   */\n    tag_341:\n        /* \"#utility.yul\":16764:16765   */\n      dup3\n        /* \"#utility.yul\":16761:16762   */\n      dup3\n        /* \"#utility.yul\":16757:16766   */\n      div\n        /* \"#utility.yul\":16752:16766   */\n      swap1\n      pop\n        /* \"#utility.yul\":16587:16772   */\n      swap3\n      swap2\n      pop\n      pop\n      jump\t// out\n        /* \"#utility.yul\":16778:16969   */\n    tag_105:\n        /* \"#utility.yul\":16818:16821   */\n      0x00\n        /* \"#utility.yul\":16837:16857   */\n      tag_344\n        /* \"#utility.yul\":16855:16856   */\n      dup3\n        /* \"#utility.yul\":16837:16857   */\n      tag_120\n      jump\t// in\n    tag_344:\n        /* \"#utility.yul\":16832:16857   */\n      swap2\n      pop\n        /* \"#utility.yul\":16871:16891   */\n      tag_345\n        /* \"#utility.yul\":16889:16890   */\n      dup4\n        /* \"#utility.yul\":16871:16891   */\n      tag_120\n      jump\t// in\n    tag_345:\n        /* \"#utility.yul\":16866:16891   */\n      swap3\n      pop\n        /* \"#utility.yul\":16914:16915   */\n      dup3\n        /* \"#utility.yul\":16911:16912   */\n      dup3\n        /* \"#utility.yul\":16907:16916   */\n      add\n        /* \"#utility.yul\":16900:16916   */\n      swap1\n      pop\n        /* \"#utility.yul\":16935:16938   */\n      dup1\n        /* \"#utility.yul\":16932:16933   */\n      dup3\n        /* \"#utility.yul\":16929:16939   */\n      gt\n        /* \"#utility.yul\":16926:16962   */\n      iszero\n      tag_346\n      jumpi\n        /* \"#utility.yul\":16942:16960   */\n      tag_347\n      tag_141\n      jump\t// in\n    tag_347:\n        /* \"#utility.yul\":16926:16962   */\n    tag_346:\n        /* \"#utility.yul\":16778:16969   */\n      swap3\n      swap2\n      pop\n      pop\n      jump\t// out\n\n    auxdata: 0xa2646970667358221220480b4a28a043feb4f5a27fd8072d75cbf601b645ec0259cad0f732099911c7db64736f6c63430008190033\n}\n",
				"bytecode": {
					"linkReferences": {},
					"object": "6080604052348015600e575f80fd5b505f6001819055505f6002819055505f6003819055505f600481905550611061806100385f395ff3fe6080604052600436106100a6575f3560e01c80635b0e22dd116100635780635b0e22dd146101b75780636c563abe146101e15780637cc21e0a146101fd5780639c361e4e14610225578063c49f597b1461024f578063f1d5597c14610279576100a6565b8063107046bd146100aa5780631124acf4146100e9578063181e01241461011357806320f7a5051461014f5780632a661dac146101775780633e25e837146101a1575b5f80fd5b3480156100b5575f80fd5b506100d060048036038101906100cb9190610727565b6102a3565b6040516100e094939291906107eb565b60405180910390f35b3480156100f4575f80fd5b506100fd610360565b60405161010a9190610835565b60405180910390f35b34801561011e575f80fd5b5061013960048036038101906101349190610727565b610369565b6040516101469190610835565b60405180910390f35b34801561015a575f80fd5b506101756004803603810190610170919061097a565b6103b4565b005b348015610182575f80fd5b5061018b61048f565b6040516101989190610835565b60405180910390f35b3480156101ac575f80fd5b506101b5610498565b005b3480156101c2575f80fd5b506101cb61049a565b6040516101d89190610835565b60405180910390f35b6101fb60048036038101906101f69190610727565b6104a0565b005b348015610208575f80fd5b50610223600480360381019061021e91906109e6565b610658565b005b348015610230575f80fd5b506102396106d1565b6040516102469190610835565b60405180910390f35b34801561025a575f80fd5b506102636106d7565b6040516102709190610835565b60405180910390f35b348015610284575f80fd5b5061028d6106dd565b60405161029a9190610835565b60405180910390f35b5f602052805f5260405f205f91509050805f0180546102c190610a51565b80601f01602080910402602001604051908101604052809291908181526020018280546102ed90610a51565b80156103385780601f1061030f57610100808354040283529160200191610338565b820191905f5260205f20905b81548152906001019060200180831161031b57829003601f168201915b505050505090806001015490806002015490806003015f9054906101000a900460ff16905084565b5f600254905090565b5f805f8381526020019081526020015f206001015442111561038d575f90506103af565b425f808481526020019081526020015f20600101546103ac9190610aae565b90505b919050565b4283116103f6576040517f08c379a00000000000000000000000000000000000000000000000000000000081526004016103ed90610b2b565b60405180910390fd5b60405180608001604052808281526020018481526020015f81526020015f15158152505f808481526020019081526020015f205f820151815f01908161043c9190610ce6565b5060208201518160010155604082015181600201556060820151816003015f6101000a81548160ff02191690831515021790555090505060015f81548092919061048590610db5565b9190505550505050565b5f600354905090565b565b60025481565b5f805f8381526020019081526020015f20905080600101544211156104fa576040517f08c379a00000000000000000000000000000000000000000000000000000000081526004016104f190610e6c565b60405180910390fd5b806003015f9054906101000a900460ff161561054b576040517f08c379a000000000000000000000000000000000000000000000000000000000815260040161054290610ed4565b60405180910390fd5b5f341161058d576040517f08c379a000000000000000000000000000000000000000000000000000000000815260040161058490610f3c565b60405180910390fd5b5f606460053461059d9190610f5a565b6105a79190610fc8565b90508060045f8282546105ba9190610ff8565b925050819055505f81346105ce9190610aae565b905080836002015f8282546105e39190610ff8565b92505081905550606483600201541061062e576001836003015f6101000a81548160ff02191690831515021790555060025f81548092919061062490610db5565b9190505550610652565b826001015442106106515760035f81548092919061064b90610db5565b91905055505b5b50505050565b5f805f8481526020019081526020015f20905080600101544211156106b2576040517f08c379a00000000000000000000000000000000000000000000000000000000081526004016106a990610e6c565b60405180910390fd5b81816001015f8282546106c59190610ff8565b92505081905550505050565b60015481565b60045481565b60035481565b5f604051905090565b5f80fd5b5f80fd5b5f819050919050565b610706816106f4565b8114610710575f80fd5b50565b5f81359050610721816106fd565b92915050565b5f6020828403121561073c5761073b6106ec565b5b5f61074984828501610713565b91505092915050565b5f81519050919050565b5f82825260208201905092915050565b8281835e5f83830152505050565b5f601f19601f8301169050919050565b5f61079482610752565b61079e818561075c565b93506107ae81856020860161076c565b6107b78161077a565b840191505092915050565b6107cb816106f4565b82525050565b5f8115159050919050565b6107e5816107d1565b82525050565b5f6080820190508181035f830152610803818761078a565b905061081260208301866107c2565b61081f60408301856107c2565b61082c60608301846107dc565b95945050505050565b5f6020820190506108485f8301846107c2565b92915050565b5f80fd5b5f80fd5b7f4e487b71000000000000000000000000000000000000000000000000000000005f52604160045260245ffd5b61088c8261077a565b810181811067ffffffffffffffff821117156108ab576108aa610856565b5b80604052505050565b5f6108bd6106e3565b90506108c98282610883565b919050565b5f67ffffffffffffffff8211156108e8576108e7610856565b5b6108f18261077a565b9050602081019050919050565b828183375f83830152505050565b5f61091e610919846108ce565b6108b4565b90508281526020810184848401111561093a57610939610852565b5b6109458482856108fe565b509392505050565b5f82601f8301126109615761096061084e565b5b813561097184826020860161090c565b91505092915050565b5f805f60608486031215610991576109906106ec565b5b5f61099e86828701610713565b93505060206109af86828701610713565b925050604084013567ffffffffffffffff8111156109d0576109cf6106f0565b5b6109dc8682870161094d565b9150509250925092565b5f80604083850312156109fc576109fb6106ec565b5b5f610a0985828601610713565b9250506020610a1a85828601610713565b9150509250929050565b7f4e487b71000000000000000000000000000000000000000000000000000000005f52602260045260245ffd5b5f6002820490506001821680610a6857607f821691505b602082108103610a7b57610a7a610a24565b5b50919050565b7f4e487b71000000000000000000000000000000000000000000000000000000005f52601160045260245ffd5b5f610ab8826106f4565b9150610ac3836106f4565b9250828203905081811115610adb57610ada610a81565b5b92915050565b7f446561646c696e65206d75737420626520696e207468652066757475726500005f82015250565b5f610b15601e8361075c565b9150610b2082610ae1565b602082019050919050565b5f6020820190508181035f830152610b4281610b09565b9050919050565b5f819050815f5260205f209050919050565b5f6020601f8301049050919050565b5f82821b905092915050565b5f60088302610ba57fffffffffffffffffffffffffffffffffffffffffffffffffffffffffffffffff82610b6a565b610baf8683610b6a565b95508019841693508086168417925050509392505050565b5f819050919050565b5f610bea610be5610be0846106f4565b610bc7565b6106f4565b9050919050565b5f819050919050565b610c0383610bd0565b610c17610c0f82610bf1565b848454610b76565b825550505050565b5f90565b610c2b610c1f565b610c36818484610bfa565b505050565b5b81811015610c5957610c4e5f82610c23565b600181019050610c3c565b5050565b601f821115610c9e57610c6f81610b49565b610c7884610b5b565b81016020851015610c87578190505b610c9b610c9385610b5b565b830182610c3b565b50505b505050565b5f82821c905092915050565b5f610cbe5f1984600802610ca3565b1980831691505092915050565b5f610cd68383610caf565b9150826002028217905092915050565b610cef82610752565b67ffffffffffffffff811115610d0857610d07610856565b5b610d128254610a51565b610d1d828285610c5d565b5f60209050601f831160018114610d4e575f8415610d3c578287015190505b610d468582610ccb565b865550610dad565b601f198416610d5c86610b49565b5f5b82811015610d8357848901518255600182019150602085019450602081019050610d5e565b86831015610da05784890151610d9c601f891682610caf565b8355505b6001600288020188555050505b505050505050565b5f610dbf826106f4565b91507fffffffffffffffffffffffffffffffffffffffffffffffffffffffffffffffff8203610df157610df0610a81565b5b600182019050919050565b7f50726f6a65637420646561646c696e6520697320616c726561647920706173735f8201527f6564000000000000000000000000000000000000000000000000000000000000602082015250565b5f610e5660228361075c565b9150610e6182610dfc565b604082019050919050565b5f6020820190508181035f830152610e8381610e4a565b9050919050565b7f50726f6a65637420697320616c72656164792066756e646564000000000000005f82015250565b5f610ebe60198361075c565b9150610ec982610e8a565b602082019050919050565b5f6020820190508181035f830152610eeb81610eb2565b9050919050565b7f4d7573742073656e6420736f6d652076616c7565206f662065746865720000005f82015250565b5f610f26601d8361075c565b9150610f3182610ef2565b602082019050919050565b5f6020820190508181035f830152610f5381610f1a565b9050919050565b5f610f64826106f4565b9150610f6f836106f4565b9250828202610f7d816106f4565b91508282048414831517610f9457610f93610a81565b5b5092915050565b7f4e487b71000000000000000000000000000000000000000000000000000000005f52601260045260245ffd5b5f610fd2826106f4565b9150610fdd836106f4565b925082610fed57610fec610f9b565b5b828204905092915050565b5f611002826106f4565b915061100d836106f4565b925082820190508082111561102557611024610a81565b5b9291505056fea2646970667358221220480b4a28a043feb4f5a27fd8072d75cbf601b645ec0259cad0f732099911c7db64736f6c63430008190033",
					"opcodes": "PUSH1 0x80 PUSH1 0x40 MSTORE CALLVALUE DUP1 ISZERO PUSH1 0xE JUMPI PUSH0 DUP1 REVERT JUMPDEST POP PUSH0 PUSH1 0x1 DUP2 SWAP1 SSTORE POP PUSH0 PUSH1 0x2 DUP2 SWAP1 SSTORE POP PUSH0 PUSH1 0x3 DUP2 SWAP1 SSTORE POP PUSH0 PUSH1 0x4 DUP2 SWAP1 SSTORE POP PUSH2 0x1061 DUP1 PUSH2 0x38 PUSH0 CODECOPY PUSH0 RETURN INVALID PUSH1 0x80 PUSH1 0x40 MSTORE PUSH1 0x4 CALLDATASIZE LT PUSH2 0xA6 JUMPI PUSH0 CALLDATALOAD PUSH1 0xE0 SHR DUP1 PUSH4 0x5B0E22DD GT PUSH2 0x63 JUMPI DUP1 PUSH4 0x5B0E22DD EQ PUSH2 0x1B7 JUMPI DUP1 PUSH4 0x6C563ABE EQ PUSH2 0x1E1 JUMPI DUP1 PUSH4 0x7CC21E0A EQ PUSH2 0x1FD JUMPI DUP1 PUSH4 0x9C361E4E EQ PUSH2 0x225 JUMPI DUP1 PUSH4 0xC49F597B EQ PUSH2 0x24F JUMPI DUP1 PUSH4 0xF1D5597C EQ PUSH2 0x279 JUMPI PUSH2 0xA6 JUMP JUMPDEST DUP1 PUSH4 0x107046BD EQ PUSH2 0xAA JUMPI DUP1 PUSH4 0x1124ACF4 EQ PUSH2 0xE9 JUMPI DUP1 PUSH4 0x181E0124 EQ PUSH2 0x113 JUMPI DUP1 PUSH4 0x20F7A505 EQ PUSH2 0x14F JUMPI DUP1 PUSH4 0x2A661DAC EQ PUSH2 0x177 JUMPI DUP1 PUSH4 0x3E25E837 EQ PUSH2 0x1A1 JUMPI JUMPDEST PUSH0 DUP1 REVERT JUMPDEST CALLVALUE DUP1 ISZERO PUSH2 0xB5 JUMPI PUSH0 DUP1 REVERT JUMPDEST POP PUSH2 0xD0 PUSH1 0x4 DUP1 CALLDATASIZE SUB DUP2 ADD SWAP1 PUSH2 0xCB SWAP2 SWAP1 PUSH2 0x727 JUMP JUMPDEST PUSH2 0x2A3 JUMP JUMPDEST PUSH1 0x40 MLOAD PUSH2 0xE0 SWAP5 SWAP4 SWAP3 SWAP2 SWAP1 PUSH2 0x7EB JUMP JUMPDEST PUSH1 0x40 MLOAD DUP1 SWAP2 SUB SWAP1 RETURN JUMPDEST CALLVALUE DUP1 ISZERO PUSH2 0xF4 JUMPI PUSH0 DUP1 REVERT JUMPDEST POP PUSH2 0xFD PUSH2 0x360 JUMP JUMPDEST PUSH1 0x40 MLOAD PUSH2 0x10A SWAP2 SWAP1 PUSH2 0x835 JUMP JUMPDEST PUSH1 0x40 MLOAD DUP1 SWAP2 SUB SWAP1 RETURN JUMPDEST CALLVALUE DUP1 ISZERO PUSH2 0x11E JUMPI PUSH0 DUP1 REVERT JUMPDEST POP PUSH2 0x139 PUSH1 0x4 DUP1 CALLDATASIZE SUB DUP2 ADD SWAP1 PUSH2 0x134 SWAP2 SWAP1 PUSH2 0x727 JUMP JUMPDEST PUSH2 0x369 JUMP JUMPDEST PUSH1 0x40 MLOAD PUSH2 0x146 SWAP2 SWAP1 PUSH2 0x835 JUMP JUMPDEST PUSH1 0x40 MLOAD DUP1 SWAP2 SUB SWAP1 RETURN JUMPDEST CALLVALUE DUP1 ISZERO PUSH2 0x15A JUMPI PUSH0 DUP1 REVERT JUMPDEST POP PUSH2 0x175 PUSH1 0x4 DUP1 CALLDATASIZE SUB DUP2 ADD SWAP1 PUSH2 0x170 SWAP2 SWAP1 PUSH2 0x97A JUMP JUMPDEST PUSH2 0x3B4 JUMP JUMPDEST STOP JUMPDEST CALLVALUE DUP1 ISZERO PUSH2 0x182 JUMPI PUSH0 DUP1 REVERT JUMPDEST POP PUSH2 0x18B PUSH2 0x48F JUMP JUMPDEST PUSH1 0x40 MLOAD PUSH2 0x198 SWAP2 SWAP1 PUSH2 0x835 JUMP JUMPDEST PUSH1 0x40 MLOAD DUP1 SWAP2 SUB SWAP1 RETURN JUMPDEST CALLVALUE DUP1 ISZERO PUSH2 0x1AC JUMPI PUSH0 DUP1 REVERT JUMPDEST POP PUSH2 0x1B5 PUSH2 0x498 JUMP JUMPDEST STOP JUMPDEST CALLVALUE DUP1 ISZERO PUSH2 0x1C2 JUMPI PUSH0 DUP1 REVERT JUMPDEST POP PUSH2 0x1CB PUSH2 0x49A JUMP JUMPDEST PUSH1 0x40 MLOAD PUSH2 0x1D8 SWAP2 SWAP1 PUSH2 0x835 JUMP JUMPDEST PUSH1 0x40 MLOAD DUP1 SWAP2 SUB SWAP1 RETURN JUMPDEST PUSH2 0x1FB PUSH1 0x4 DUP1 CALLDATASIZE SUB DUP2 ADD SWAP1 PUSH2 0x1F6 SWAP2 SWAP1 PUSH2 0x727 JUMP JUMPDEST PUSH2 0x4A0 JUMP JUMPDEST STOP JUMPDEST CALLVALUE DUP1 ISZERO PUSH2 0x208 JUMPI PUSH0 DUP1 REVERT JUMPDEST POP PUSH2 0x223 PUSH1 0x4 DUP1 CALLDATASIZE SUB DUP2 ADD SWAP1 PUSH2 0x21E SWAP2 SWAP1 PUSH2 0x9E6 JUMP JUMPDEST PUSH2 0x658 JUMP JUMPDEST STOP JUMPDEST CALLVALUE DUP1 ISZERO PUSH2 0x230 JUMPI PUSH0 DUP1 REVERT JUMPDEST POP PUSH2 0x239 PUSH2 0x6D1 JUMP JUMPDEST PUSH1 0x40 MLOAD PUSH2 0x246 SWAP2 SWAP1 PUSH2 0x835 JUMP JUMPDEST PUSH1 0x40 MLOAD DUP1 SWAP2 SUB SWAP1 RETURN JUMPDEST CALLVALUE DUP1 ISZERO PUSH2 0x25A JUMPI PUSH0 DUP1 REVERT JUMPDEST POP PUSH2 0x263 PUSH2 0x6D7 JUMP JUMPDEST PUSH1 0x40 MLOAD PUSH2 0x270 SWAP2 SWAP1 PUSH2 0x835 JUMP JUMPDEST PUSH1 0x40 MLOAD DUP1 SWAP2 SUB SWAP1 RETURN JUMPDEST CALLVALUE DUP1 ISZERO PUSH2 0x284 JUMPI PUSH0 DUP1 REVERT JUMPDEST POP PUSH2 0x28D PUSH2 0x6DD JUMP JUMPDEST PUSH1 0x40 MLOAD PUSH2 0x29A SWAP2 SWAP1 PUSH2 0x835 JUMP JUMPDEST PUSH1 0x40 MLOAD DUP1 SWAP2 SUB SWAP1 RETURN JUMPDEST PUSH0 PUSH1 0x20 MSTORE DUP1 PUSH0 MSTORE PUSH1 0x40 PUSH0 KECCAK256 PUSH0 SWAP2 POP SWAP1 POP DUP1 PUSH0 ADD DUP1 SLOAD PUSH2 0x2C1 SWAP1 PUSH2 0xA51 JUMP JUMPDEST DUP1 PUSH1 0x1F ADD PUSH1 0x20 DUP1 SWAP2 DIV MUL PUSH1 0x20 ADD PUSH1 0x40 MLOAD SWAP1 DUP2 ADD PUSH1 0x40 MSTORE DUP1 SWAP3 SWAP2 SWAP1 DUP2 DUP2 MSTORE PUSH1 0x20 ADD DUP3 DUP1 SLOAD PUSH2 0x2ED SWAP1 PUSH2 0xA51 JUMP JUMPDEST DUP1 ISZERO PUSH2 0x338 JUMPI DUP1 PUSH1 0x1F LT PUSH2 0x30F JUMPI PUSH2 0x100 DUP1 DUP4 SLOAD DIV MUL DUP4 MSTORE SWAP2 PUSH1 0x20 ADD SWAP2 PUSH2 0x338 JUMP JUMPDEST DUP3 ADD SWAP2 SWAP1 PUSH0 MSTORE PUSH1 0x20 PUSH0 KECCAK256 SWAP1 JUMPDEST DUP2 SLOAD DUP2 MSTORE SWAP1 PUSH1 0x1 ADD SWAP1 PUSH1 0x20 ADD DUP1 DUP4 GT PUSH2 0x31B JUMPI DUP3 SWAP1 SUB PUSH1 0x1F AND DUP3 ADD SWAP2 JUMPDEST POP POP POP POP POP SWAP1 DUP1 PUSH1 0x1 ADD SLOAD SWAP1 DUP1 PUSH1 0x2 ADD SLOAD SWAP1 DUP1 PUSH1 0x3 ADD PUSH0 SWAP1 SLOAD SWAP1 PUSH2 0x100 EXP SWAP1 DIV PUSH1 0xFF AND SWAP1 POP DUP5 JUMP JUMPDEST PUSH0 PUSH1 0x2 SLOAD SWAP1 POP SWAP1 JUMP JUMPDEST PUSH0 DUP1 PUSH0 DUP4 DUP2 MSTORE PUSH1 0x20 ADD SWAP1 DUP2 MSTORE PUSH1 0x20 ADD PUSH0 KECCAK256 PUSH1 0x1 ADD SLOAD TIMESTAMP GT ISZERO PUSH2 0x38D JUMPI PUSH0 SWAP1 POP PUSH2 0x3AF JUMP JUMPDEST TIMESTAMP PUSH0 DUP1 DUP5 DUP2 MSTORE PUSH1 0x20 ADD SWAP1 DUP2 MSTORE PUSH1 0x20 ADD PUSH0 KECCAK256 PUSH1 0x1 ADD SLOAD PUSH2 0x3AC SWAP2 SWAP1 PUSH2 0xAAE JUMP JUMPDEST SWAP1 POP JUMPDEST SWAP2 SWAP1 POP JUMP JUMPDEST TIMESTAMP DUP4 GT PUSH2 0x3F6 JUMPI PUSH1 0x40 MLOAD PUSH32 0x8C379A000000000000000000000000000000000000000000000000000000000 DUP2 MSTORE PUSH1 0x4 ADD PUSH2 0x3ED SWAP1 PUSH2 0xB2B JUMP JUMPDEST PUSH1 0x40 MLOAD DUP1 SWAP2 SUB SWAP1 REVERT JUMPDEST PUSH1 0x40 MLOAD DUP1 PUSH1 0x80 ADD PUSH1 0x40 MSTORE DUP1 DUP3 DUP2 MSTORE PUSH1 0x20 ADD DUP5 DUP2 MSTORE PUSH1 0x20 ADD PUSH0 DUP2 MSTORE PUSH1 0x20 ADD PUSH0 ISZERO ISZERO DUP2 MSTORE POP PUSH0 DUP1 DUP5 DUP2 MSTORE PUSH1 0x20 ADD SWAP1 DUP2 MSTORE PUSH1 0x20 ADD PUSH0 KECCAK256 PUSH0 DUP3 ADD MLOAD DUP2 PUSH0 ADD SWAP1 DUP2 PUSH2 0x43C SWAP2 SWAP1 PUSH2 0xCE6 JUMP JUMPDEST POP PUSH1 0x20 DUP3 ADD MLOAD DUP2 PUSH1 0x1 ADD SSTORE PUSH1 0x40 DUP3 ADD MLOAD DUP2 PUSH1 0x2 ADD SSTORE PUSH1 0x60 DUP3 ADD MLOAD DUP2 PUSH1 0x3 ADD PUSH0 PUSH2 0x100 EXP DUP2 SLOAD DUP2 PUSH1 0xFF MUL NOT AND SWAP1 DUP4 ISZERO ISZERO MUL OR SWAP1 SSTORE POP SWAP1 POP POP PUSH1 0x1 PUSH0 DUP2 SLOAD DUP1 SWAP3 SWAP2 SWAP1 PUSH2 0x485 SWAP1 PUSH2 0xDB5 JUMP JUMPDEST SWAP2 SWAP1 POP SSTORE POP POP POP POP JUMP JUMPDEST PUSH0 PUSH1 0x3 SLOAD SWAP1 POP SWAP1 JUMP JUMPDEST JUMP JUMPDEST PUSH1 0x2 SLOAD DUP2 JUMP JUMPDEST PUSH0 DUP1 PUSH0 DUP4 DUP2 MSTORE PUSH1 0x20 ADD SWAP1 DUP2 MSTORE PUSH1 0x20 ADD PUSH0 KECCAK256 SWAP1 POP DUP1 PUSH1 0x1 ADD SLOAD TIMESTAMP GT ISZERO PUSH2 0x4FA JUMPI PUSH1 0x40 MLOAD PUSH32 0x8C379A000000000000000000000000000000000000000000000000000000000 DUP2 MSTORE PUSH1 0x4 ADD PUSH2 0x4F1 SWAP1 PUSH2 0xE6C JUMP JUMPDEST PUSH1 0x40 MLOAD DUP1 SWAP2 SUB SWAP1 REVERT JUMPDEST DUP1 PUSH1 0x3 ADD PUSH0 SWAP1 SLOAD SWAP1 PUSH2 0x100 EXP SWAP1 DIV PUSH1 0xFF AND ISZERO PUSH2 0x54B JUMPI PUSH1 0x40 MLOAD PUSH32 0x8C379A000000000000000000000000000000000000000000000000000000000 DUP2 MSTORE PUSH1 0x4 ADD PUSH2 0x542 SWAP1 PUSH2 0xED4 JUMP JUMPDEST PUSH1 0x40 MLOAD DUP1 SWAP2 SUB SWAP1 REVERT JUMPDEST PUSH0 CALLVALUE GT PUSH2 0x58D JUMPI PUSH1 0x40 MLOAD PUSH32 0x8C379A000000000000000000000000000000000000000000000000000000000 DUP2 MSTORE PUSH1 0x4 ADD PUSH2 0x584 SWAP1 PUSH2 0xF3C JUMP JUMPDEST PUSH1 0x40 MLOAD DUP1 SWAP2 SUB SWAP1 REVERT JUMPDEST PUSH0 PUSH1 0x64 PUSH1 0x5 CALLVALUE PUSH2 0x59D SWAP2 SWAP1 PUSH2 0xF5A JUMP JUMPDEST PUSH2 0x5A7 SWAP2 SWAP1 PUSH2 0xFC8 JUMP JUMPDEST SWAP1 POP DUP1 PUSH1 0x4 PUSH0 DUP3 DUP3 SLOAD PUSH2 0x5BA SWAP2 SWAP1 PUSH2 0xFF8 JUMP JUMPDEST SWAP3 POP POP DUP2 SWAP1 SSTORE POP PUSH0 DUP2 CALLVALUE PUSH2 0x5CE SWAP2 SWAP1 PUSH2 0xAAE JUMP JUMPDEST SWAP1 POP DUP1 DUP4 PUSH1 0x2 ADD PUSH0 DUP3 DUP3 SLOAD PUSH2 0x5E3 SWAP2 SWAP1 PUSH2 0xFF8 JUMP JUMPDEST SWAP3 POP POP DUP2 SWAP1 SSTORE POP PUSH1 0x64 DUP4 PUSH1 0x2 ADD SLOAD LT PUSH2 0x62E JUMPI PUSH1 0x1 DUP4 PUSH1 0x3 ADD PUSH0 PUSH2 0x100 EXP DUP2 SLOAD DUP2 PUSH1 0xFF MUL NOT AND SWAP1 DUP4 ISZERO ISZERO MUL OR SWAP1 SSTORE POP PUSH1 0x2 PUSH0 DUP2 SLOAD DUP1 SWAP3 SWAP2 SWAP1 PUSH2 0x624 SWAP1 PUSH2 0xDB5 JUMP JUMPDEST SWAP2 SWAP1 POP SSTORE POP PUSH2 0x652 JUMP JUMPDEST DUP3 PUSH1 0x1 ADD SLOAD TIMESTAMP LT PUSH2 0x651 JUMPI PUSH1 0x3 PUSH0 DUP2 SLOAD DUP1 SWAP3 SWAP2 SWAP1 PUSH2 0x64B SWAP1 PUSH2 0xDB5 JUMP JUMPDEST SWAP2 SWAP1 POP SSTORE POP JUMPDEST JUMPDEST POP POP POP POP JUMP JUMPDEST PUSH0 DUP1 PUSH0 DUP5 DUP2 MSTORE PUSH1 0x20 ADD SWAP1 DUP2 MSTORE PUSH1 0x20 ADD PUSH0 KECCAK256 SWAP1 POP DUP1 PUSH1 0x1 ADD SLOAD TIMESTAMP GT ISZERO PUSH2 0x6B2 JUMPI PUSH1 0x40 MLOAD PUSH32 0x8C379A000000000000000000000000000000000000000000000000000000000 DUP2 MSTORE PUSH1 0x4 ADD PUSH2 0x6A9 SWAP1 PUSH2 0xE6C JUMP JUMPDEST PUSH1 0x40 MLOAD DUP1 SWAP2 SUB SWAP1 REVERT JUMPDEST DUP2 DUP2 PUSH1 0x1 ADD PUSH0 DUP3 DUP3 SLOAD PUSH2 0x6C5 SWAP2 SWAP1 PUSH2 0xFF8 JUMP JUMPDEST SWAP3 POP POP DUP2 SWAP1 SSTORE POP POP POP POP JUMP JUMPDEST PUSH1 0x1 SLOAD DUP2 JUMP JUMPDEST PUSH1 0x4 SLOAD DUP2 JUMP JUMPDEST PUSH1 0x3 SLOAD DUP2 JUMP JUMPDEST PUSH0 PUSH1 0x40 MLOAD SWAP1 POP SWAP1 JUMP JUMPDEST PUSH0 DUP1 REVERT JUMPDEST PUSH0 DUP1 REVERT JUMPDEST PUSH0 DUP2 SWAP1 POP SWAP2 SWAP1 POP JUMP JUMPDEST PUSH2 0x706 DUP2 PUSH2 0x6F4 JUMP JUMPDEST DUP2 EQ PUSH2 0x710 JUMPI PUSH0 DUP1 REVERT JUMPDEST POP JUMP JUMPDEST PUSH0 DUP2 CALLDATALOAD SWAP1 POP PUSH2 0x721 DUP2 PUSH2 0x6FD JUMP JUMPDEST SWAP3 SWAP2 POP POP JUMP JUMPDEST PUSH0 PUSH1 0x20 DUP3 DUP5 SUB SLT ISZERO PUSH2 0x73C JUMPI PUSH2 0x73B PUSH2 0x6EC JUMP JUMPDEST JUMPDEST PUSH0 PUSH2 0x749 DUP5 DUP3 DUP6 ADD PUSH2 0x713 JUMP JUMPDEST SWAP2 POP POP SWAP3 SWAP2 POP POP JUMP JUMPDEST PUSH0 DUP2 MLOAD SWAP1 POP SWAP2 SWAP1 POP JUMP JUMPDEST PUSH0 DUP3 DUP3 MSTORE PUSH1 0x20 DUP3 ADD SWAP1 POP SWAP3 SWAP2 POP POP JUMP JUMPDEST DUP3 DUP2 DUP4 MCOPY PUSH0 DUP4 DUP4 ADD MSTORE POP POP POP JUMP JUMPDEST PUSH0 PUSH1 0x1F NOT PUSH1 0x1F DUP4 ADD AND SWAP1 POP SWAP2 SWAP1 POP JUMP JUMPDEST PUSH0 PUSH2 0x794 DUP3 PUSH2 0x752 JUMP JUMPDEST PUSH2 0x79E DUP2 DUP6 PUSH2 0x75C JUMP JUMPDEST SWAP4 POP PUSH2 0x7AE DUP2 DUP6 PUSH1 0x20 DUP7 ADD PUSH2 0x76C JUMP JUMPDEST PUSH2 0x7B7 DUP2 PUSH2 0x77A JUMP JUMPDEST DUP5 ADD SWAP2 POP POP SWAP3 SWAP2 POP POP JUMP JUMPDEST PUSH2 0x7CB DUP2 PUSH2 0x6F4 JUMP JUMPDEST DUP3 MSTORE POP POP JUMP JUMPDEST PUSH0 DUP2 ISZERO ISZERO SWAP1 POP SWAP2 SWAP1 POP JUMP JUMPDEST PUSH2 0x7E5 DUP2 PUSH2 0x7D1 JUMP JUMPDEST DUP3 MSTORE POP POP JUMP JUMPDEST PUSH0 PUSH1 0x80 DUP3 ADD SWAP1 POP DUP2 DUP2 SUB PUSH0 DUP4 ADD MSTORE PUSH2 0x803 DUP2 DUP8 PUSH2 0x78A JUMP JUMPDEST SWAP1 POP PUSH2 0x812 PUSH1 0x20 DUP4 ADD DUP7 PUSH2 0x7C2 JUMP JUMPDEST PUSH2 0x81F PUSH1 0x40 DUP4 ADD DUP6 PUSH2 0x7C2 JUMP JUMPDEST PUSH2 0x82C PUSH1 0x60 DUP4 ADD DUP5 PUSH2 0x7DC JUMP JUMPDEST SWAP6 SWAP5 POP POP POP POP POP JUMP JUMPDEST PUSH0 PUSH1 0x20 DUP3 ADD SWAP1 POP PUSH2 0x848 PUSH0 DUP4 ADD DUP5 PUSH2 0x7C2 JUMP JUMPDEST SWAP3 SWAP2 POP POP JUMP JUMPDEST PUSH0 DUP1 REVERT JUMPDEST PUSH0 DUP1 REVERT JUMPDEST PUSH32 0x4E487B7100000000000000000000000000000000000000000000000000000000 PUSH0 MSTORE PUSH1 0x41 PUSH1 0x4 MSTORE PUSH1 0x24 PUSH0 REVERT JUMPDEST PUSH2 0x88C DUP3 PUSH2 0x77A JUMP JUMPDEST DUP2 ADD DUP2 DUP2 LT PUSH8 0xFFFFFFFFFFFFFFFF DUP3 GT OR ISZERO PUSH2 0x8AB JUMPI PUSH2 0x8AA PUSH2 0x856 JUMP JUMPDEST JUMPDEST DUP1 PUSH1 0x40 MSTORE POP POP POP JUMP JUMPDEST PUSH0 PUSH2 0x8BD PUSH2 0x6E3 JUMP JUMPDEST SWAP1 POP PUSH2 0x8C9 DUP3 DUP3 PUSH2 0x883 JUMP JUMPDEST SWAP2 SWAP1 POP JUMP JUMPDEST PUSH0 PUSH8 0xFFFFFFFFFFFFFFFF DUP3 GT ISZERO PUSH2 0x8E8 JUMPI PUSH2 0x8E7 PUSH2 0x856 JUMP JUMPDEST JUMPDEST PUSH2 0x8F1 DUP3 PUSH2 0x77A JUMP JUMPDEST SWAP1 POP PUSH1 0x20 DUP2 ADD SWAP1 POP SWAP2 SWAP1 POP JUMP JUMPDEST DUP3 DUP2 DUP4 CALLDATACOPY PUSH0 DUP4 DUP4 ADD MSTORE POP POP POP JUMP JUMPDEST PUSH0 PUSH2 0x91E PUSH2 0x919 DUP5 PUSH2 0x8CE JUMP JUMPDEST PUSH2 0x8B4 JUMP JUMPDEST SWAP1 POP DUP3 DUP2 MSTORE PUSH1 0x20 DUP2 ADD DUP5 DUP5 DUP5 ADD GT ISZERO PUSH2 0x93A JUMPI PUSH2 0x939 PUSH2 0x852 JUMP JUMPDEST JUMPDEST PUSH2 0x945 DUP5 DUP3 DUP6 PUSH2 0x8FE JUMP JUMPDEST POP SWAP4 SWAP3 POP POP POP JUMP JUMPDEST PUSH0 DUP3 PUSH1 0x1F DUP4 ADD SLT PUSH2 0x961 JUMPI PUSH2 0x960 PUSH2 0x84E JUMP JUMPDEST JUMPDEST DUP2 CALLDATALOAD PUSH2 0x971 DUP5 DUP3 PUSH1 0x20 DUP7 ADD PUSH2 0x90C JUMP JUMPDEST SWAP2 POP POP SWAP3 SWAP2 POP POP JUMP JUMPDEST PUSH0 DUP1 PUSH0 PUSH1 0x60 DUP5 DUP7 SUB SLT ISZERO PUSH2 0x991 JUMPI PUSH2 0x990 PUSH2 0x6EC JUMP JUMPDEST JUMPDEST PUSH0 PUSH2 0x99E DUP7 DUP3 DUP8 ADD PUSH2 0x713 JUMP JUMPDEST SWAP4 POP POP PUSH1 0x20 PUSH2 0x9AF DUP7 DUP3 DUP8 ADD PUSH2 0x713 JUMP JUMPDEST SWAP3 POP POP PUSH1 0x40 DUP5 ADD CALLDATALOAD PUSH8 0xFFFFFFFFFFFFFFFF DUP2 GT ISZERO PUSH2 0x9D0 JUMPI PUSH2 0x9CF PUSH2 0x6F0 JUMP JUMPDEST JUMPDEST PUSH2 0x9DC DUP7 DUP3 DUP8 ADD PUSH2 0x94D JUMP JUMPDEST SWAP2 POP POP SWAP3 POP SWAP3 POP SWAP3 JUMP JUMPDEST PUSH0 DUP1 PUSH1 0x40 DUP4 DUP6 SUB SLT ISZERO PUSH2 0x9FC JUMPI PUSH2 0x9FB PUSH2 0x6EC JUMP JUMPDEST JUMPDEST PUSH0 PUSH2 0xA09 DUP6 DUP3 DUP7 ADD PUSH2 0x713 JUMP JUMPDEST SWAP3 POP POP PUSH1 0x20 PUSH2 0xA1A DUP6 DUP3 DUP7 ADD PUSH2 0x713 JUMP JUMPDEST SWAP2 POP POP SWAP3 POP SWAP3 SWAP1 POP JUMP JUMPDEST PUSH32 0x4E487B7100000000000000000000000000000000000000000000000000000000 PUSH0 MSTORE PUSH1 0x22 PUSH1 0x4 MSTORE PUSH1 0x24 PUSH0 REVERT JUMPDEST PUSH0 PUSH1 0x2 DUP3 DIV SWAP1 POP PUSH1 0x1 DUP3 AND DUP1 PUSH2 0xA68 JUMPI PUSH1 0x7F DUP3 AND SWAP2 POP JUMPDEST PUSH1 0x20 DUP3 LT DUP2 SUB PUSH2 0xA7B JUMPI PUSH2 0xA7A PUSH2 0xA24 JUMP JUMPDEST JUMPDEST POP SWAP2 SWAP1 POP JUMP JUMPDEST PUSH32 0x4E487B7100000000000000000000000000000000000000000000000000000000 PUSH0 MSTORE PUSH1 0x11 PUSH1 0x4 MSTORE PUSH1 0x24 PUSH0 REVERT JUMPDEST PUSH0 PUSH2 0xAB8 DUP3 PUSH2 0x6F4 JUMP JUMPDEST SWAP2 POP PUSH2 0xAC3 DUP4 PUSH2 0x6F4 JUMP JUMPDEST SWAP3 POP DUP3 DUP3 SUB SWAP1 POP DUP2 DUP2 GT ISZERO PUSH2 0xADB JUMPI PUSH2 0xADA PUSH2 0xA81 JUMP JUMPDEST JUMPDEST SWAP3 SWAP2 POP POP JUMP JUMPDEST PUSH32 0x446561646C696E65206D75737420626520696E20746865206675747572650000 PUSH0 DUP3 ADD MSTORE POP JUMP JUMPDEST PUSH0 PUSH2 0xB15 PUSH1 0x1E DUP4 PUSH2 0x75C JUMP JUMPDEST SWAP2 POP PUSH2 0xB20 DUP3 PUSH2 0xAE1 JUMP JUMPDEST PUSH1 0x20 DUP3 ADD SWAP1 POP SWAP2 SWAP1 POP JUMP JUMPDEST PUSH0 PUSH1 0x20 DUP3 ADD SWAP1 POP DUP2 DUP2 SUB PUSH0 DUP4 ADD MSTORE PUSH2 0xB42 DUP2 PUSH2 0xB09 JUMP JUMPDEST SWAP1 POP SWAP2 SWAP1 POP JUMP JUMPDEST PUSH0 DUP2 SWAP1 POP DUP2 PUSH0 MSTORE PUSH1 0x20 PUSH0 KECCAK256 SWAP1 POP SWAP2 SWAP1 POP JUMP JUMPDEST PUSH0 PUSH1 0x20 PUSH1 0x1F DUP4 ADD DIV SWAP1 POP SWAP2 SWAP1 POP JUMP JUMPDEST PUSH0 DUP3 DUP3 SHL SWAP1 POP SWAP3 SWAP2 POP POP JUMP JUMPDEST PUSH0 PUSH1 0x8 DUP4 MUL PUSH2 0xBA5 PUSH32 0xFFFFFFFFFFFFFFFFFFFFFFFFFFFFFFFFFFFFFFFFFFFFFFFFFFFFFFFFFFFFFFFF DUP3 PUSH2 0xB6A JUMP JUMPDEST PUSH2 0xBAF DUP7 DUP4 PUSH2 0xB6A JUMP JUMPDEST SWAP6 POP DUP1 NOT DUP5 AND SWAP4 POP DUP1 DUP7 AND DUP5 OR SWAP3 POP POP POP SWAP4 SWAP3 POP POP POP JUMP JUMPDEST PUSH0 DUP2 SWAP1 POP SWAP2 SWAP1 POP JUMP JUMPDEST PUSH0 PUSH2 0xBEA PUSH2 0xBE5 PUSH2 0xBE0 DUP5 PUSH2 0x6F4 JUMP JUMPDEST PUSH2 0xBC7 JUMP JUMPDEST PUSH2 0x6F4 JUMP JUMPDEST SWAP1 POP SWAP2 SWAP1 POP JUMP JUMPDEST PUSH0 DUP2 SWAP1 POP SWAP2 SWAP1 POP JUMP JUMPDEST PUSH2 0xC03 DUP4 PUSH2 0xBD0 JUMP JUMPDEST PUSH2 0xC17 PUSH2 0xC0F DUP3 PUSH2 0xBF1 JUMP JUMPDEST DUP5 DUP5 SLOAD PUSH2 0xB76 JUMP JUMPDEST DUP3 SSTORE POP POP POP POP JUMP JUMPDEST PUSH0 SWAP1 JUMP JUMPDEST PUSH2 0xC2B PUSH2 0xC1F JUMP JUMPDEST PUSH2 0xC36 DUP2 DUP5 DUP5 PUSH2 0xBFA JUMP JUMPDEST POP POP POP JUMP JUMPDEST JUMPDEST DUP2 DUP2 LT ISZERO PUSH2 0xC59 JUMPI PUSH2 0xC4E PUSH0 DUP3 PUSH2 0xC23 JUMP JUMPDEST PUSH1 0x1 DUP2 ADD SWAP1 POP PUSH2 0xC3C JUMP JUMPDEST POP POP JUMP JUMPDEST PUSH1 0x1F DUP3 GT ISZERO PUSH2 0xC9E JUMPI PUSH2 0xC6F DUP2 PUSH2 0xB49 JUMP JUMPDEST PUSH2 0xC78 DUP5 PUSH2 0xB5B JUMP JUMPDEST DUP2 ADD PUSH1 0x20 DUP6 LT ISZERO PUSH2 0xC87 JUMPI DUP2 SWAP1 POP JUMPDEST PUSH2 0xC9B PUSH2 0xC93 DUP6 PUSH2 0xB5B JUMP JUMPDEST DUP4 ADD DUP3 PUSH2 0xC3B JUMP JUMPDEST POP POP JUMPDEST POP POP POP JUMP JUMPDEST PUSH0 DUP3 DUP3 SHR SWAP1 POP SWAP3 SWAP2 POP POP JUMP JUMPDEST PUSH0 PUSH2 0xCBE PUSH0 NOT DUP5 PUSH1 0x8 MUL PUSH2 0xCA3 JUMP JUMPDEST NOT DUP1 DUP4 AND SWAP2 POP POP SWAP3 SWAP2 POP POP JUMP JUMPDEST PUSH0 PUSH2 0xCD6 DUP4 DUP4 PUSH2 0xCAF JUMP JUMPDEST SWAP2 POP DUP3 PUSH1 0x2 MUL DUP3 OR SWAP1 POP SWAP3 SWAP2 POP POP JUMP JUMPDEST PUSH2 0xCEF DUP3 PUSH2 0x752 JUMP JUMPDEST PUSH8 0xFFFFFFFFFFFFFFFF DUP2 GT ISZERO PUSH2 0xD08 JUMPI PUSH2 0xD07 PUSH2 0x856 JUMP JUMPDEST JUMPDEST PUSH2 0xD12 DUP3 SLOAD PUSH2 0xA51 JUMP JUMPDEST PUSH2 0xD1D DUP3 DUP3 DUP6 PUSH2 0xC5D JUMP JUMPDEST PUSH0 PUSH1 0x20 SWAP1 POP PUSH1 0x1F DUP4 GT PUSH1 0x1 DUP2 EQ PUSH2 0xD4E JUMPI PUSH0 DUP5 ISZERO PUSH2 0xD3C JUMPI DUP3 DUP8 ADD MLOAD SWAP1 POP JUMPDEST PUSH2 0xD46 DUP6 DUP3 PUSH2 0xCCB JUMP JUMPDEST DUP7 SSTORE POP PUSH2 0xDAD JUMP JUMPDEST PUSH1 0x1F NOT DUP5 AND PUSH2 0xD5C DUP7 PUSH2 0xB49 JUMP JUMPDEST PUSH0 JUMPDEST DUP3 DUP2 LT ISZERO PUSH2 0xD83 JUMPI DUP5 DUP10 ADD MLOAD DUP3 SSTORE PUSH1 0x1 DUP3 ADD SWAP2 POP PUSH1 0x20 DUP6 ADD SWAP5 POP PUSH1 0x20 DUP2 ADD SWAP1 POP PUSH2 0xD5E JUMP JUMPDEST DUP7 DUP4 LT ISZERO PUSH2 0xDA0 JUMPI DUP5 DUP10 ADD MLOAD PUSH2 0xD9C PUSH1 0x1F DUP10 AND DUP3 PUSH2 0xCAF JUMP JUMPDEST DUP4 SSTORE POP JUMPDEST PUSH1 0x1 PUSH1 0x2 DUP9 MUL ADD DUP9 SSTORE POP POP POP JUMPDEST POP POP POP POP POP POP JUMP JUMPDEST PUSH0 PUSH2 0xDBF DUP3 PUSH2 0x6F4 JUMP JUMPDEST SWAP2 POP PUSH32 0xFFFFFFFFFFFFFFFFFFFFFFFFFFFFFFFFFFFFFFFFFFFFFFFFFFFFFFFFFFFFFFFF DUP3 SUB PUSH2 0xDF1 JUMPI PUSH2 0xDF0 PUSH2 0xA81 JUMP JUMPDEST JUMPDEST PUSH1 0x1 DUP3 ADD SWAP1 POP SWAP2 SWAP1 POP JUMP JUMPDEST PUSH32 0x50726F6A65637420646561646C696E6520697320616C72656164792070617373 PUSH0 DUP3 ADD MSTORE PUSH32 0x6564000000000000000000000000000000000000000000000000000000000000 PUSH1 0x20 DUP3 ADD MSTORE POP JUMP JUMPDEST PUSH0 PUSH2 0xE56 PUSH1 0x22 DUP4 PUSH2 0x75C JUMP JUMPDEST SWAP2 POP PUSH2 0xE61 DUP3 PUSH2 0xDFC JUMP JUMPDEST PUSH1 0x40 DUP3 ADD SWAP1 POP SWAP2 SWAP1 POP JUMP JUMPDEST PUSH0 PUSH1 0x20 DUP3 ADD SWAP1 POP DUP2 DUP2 SUB PUSH0 DUP4 ADD MSTORE PUSH2 0xE83 DUP2 PUSH2 0xE4A JUMP JUMPDEST SWAP1 POP SWAP2 SWAP1 POP JUMP JUMPDEST PUSH32 0x50726F6A65637420697320616C72656164792066756E64656400000000000000 PUSH0 DUP3 ADD MSTORE POP JUMP JUMPDEST PUSH0 PUSH2 0xEBE PUSH1 0x19 DUP4 PUSH2 0x75C JUMP JUMPDEST SWAP2 POP PUSH2 0xEC9 DUP3 PUSH2 0xE8A JUMP JUMPDEST PUSH1 0x20 DUP3 ADD SWAP1 POP SWAP2 SWAP1 POP JUMP JUMPDEST PUSH0 PUSH1 0x20 DUP3 ADD SWAP1 POP DUP2 DUP2 SUB PUSH0 DUP4 ADD MSTORE PUSH2 0xEEB DUP2 PUSH2 0xEB2 JUMP JUMPDEST SWAP1 POP SWAP2 SWAP1 POP JUMP JUMPDEST PUSH32 0x4D7573742073656E6420736F6D652076616C7565206F66206574686572000000 PUSH0 DUP3 ADD MSTORE POP JUMP JUMPDEST PUSH0 PUSH2 0xF26 PUSH1 0x1D DUP4 PUSH2 0x75C JUMP JUMPDEST SWAP2 POP PUSH2 0xF31 DUP3 PUSH2 0xEF2 JUMP JUMPDEST PUSH1 0x20 DUP3 ADD SWAP1 POP SWAP2 SWAP1 POP JUMP JUMPDEST PUSH0 PUSH1 0x20 DUP3 ADD SWAP1 POP DUP2 DUP2 SUB PUSH0 DUP4 ADD MSTORE PUSH2 0xF53 DUP2 PUSH2 0xF1A JUMP JUMPDEST SWAP1 POP SWAP2 SWAP1 POP JUMP JUMPDEST PUSH0 PUSH2 0xF64 DUP3 PUSH2 0x6F4 JUMP JUMPDEST SWAP2 POP PUSH2 0xF6F DUP4 PUSH2 0x6F4 JUMP JUMPDEST SWAP3 POP DUP3 DUP3 MUL PUSH2 0xF7D DUP2 PUSH2 0x6F4 JUMP JUMPDEST SWAP2 POP DUP3 DUP3 DIV DUP5 EQ DUP4 ISZERO OR PUSH2 0xF94 JUMPI PUSH2 0xF93 PUSH2 0xA81 JUMP JUMPDEST JUMPDEST POP SWAP3 SWAP2 POP POP JUMP JUMPDEST PUSH32 0x4E487B7100000000000000000000000000000000000000000000000000000000 PUSH0 MSTORE PUSH1 0x12 PUSH1 0x4 MSTORE PUSH1 0x24 PUSH0 REVERT JUMPDEST PUSH0 PUSH2 0xFD2 DUP3 PUSH2 0x6F4 JUMP JUMPDEST SWAP2 POP PUSH2 0xFDD DUP4 PUSH2 0x6F4 JUMP JUMPDEST SWAP3 POP DUP3 PUSH2 0xFED JUMPI PUSH2 0xFEC PUSH2 0xF9B JUMP JUMPDEST JUMPDEST DUP3 DUP3 DIV SWAP1 POP SWAP3 SWAP2 POP POP JUMP JUMPDEST PUSH0 PUSH2 0x1002 DUP3 PUSH2 0x6F4 JUMP JUMPDEST SWAP2 POP PUSH2 0x100D DUP4 PUSH2 0x6F4 JUMP JUMPDEST SWAP3 POP DUP3 DUP3 ADD SWAP1 POP DUP1 DUP3 GT ISZERO PUSH2 0x1025 JUMPI PUSH2 0x1024 PUSH2 0xA81 JUMP JUMPDEST JUMPDEST SWAP3 SWAP2 POP POP JUMP INVALID LOG2 PUSH5 0x6970667358 0x22 SLT KECCAK256 BASEFEE SIGNEXTEND BLOBBASEFEE 0x28 LOG0 NUMBER INVALID 0xB4 CREATE2 LOG2 PUSH32 0xD8072D75CBF601B645EC0259CAD0F732099911C7DB64736F6C63430008190033 "
				},
				"gasEstimates": {
					"creation": {
						"codeDepositCost": "838600",
						"executionCost": "20927",
						"totalCost": "859527"
					},
					"external": {
						"createProject(uint256,uint256,string)": "infinite",
						"enhanceDeadline(uint256,uint256)": "infinite",
						"fundProject(uint256)": "infinite",
						"getFailedProjects()": "2521",
						"getRemainingTime(uint256)": "infinite",
						"getSuccessfulProjects()": "2455",
						"projects(uint256)": "infinite",
						"systemCommission()": "2513",
						"totalFailedProjects()": "2535",
						"totalFundedProjects()": "2425",
						"totalProjects()": "2491",
						"withdrawCommission()": "254"
					}
				},
				"methodIdentifiers": {
					"createProject(uint256,uint256,string)": "20f7a505",
					"enhanceDeadline(uint256,uint256)": "7cc21e0a",
					"fundProject(uint256)": "6c563abe",
					"getFailedProjects()": "2a661dac",
					"getRemainingTime(uint256)": "181e0124",
					"getSuccessfulProjects()": "1124acf4",
					"projects(uint256)": "107046bd",
					"systemCommission()": "c49f597b",
					"totalFailedProjects()": "f1d5597c",
					"totalFundedProjects()": "5b0e22dd",
					"totalProjects()": "9c361e4e",
					"withdrawCommission()": "3e25e837"
				}
			},
			"storageLayout": {
				"storage": [
					{
						"astId": 15,
						"contract": "test1.sol:Greeter",
						"label": "projects",
						"offset": 0,
						"slot": "0",
						"type": "t_mapping(t_uint256,t_struct(Project)10_storage)"
					},
					{
						"astId": 17,
						"contract": "test1.sol:Greeter",
						"label": "totalProjects",
						"offset": 0,
						"slot": "1",
						"type": "t_uint256"
					},
					{
						"astId": 19,
						"contract": "test1.sol:Greeter",
						"label": "totalFundedProjects",
						"offset": 0,
						"slot": "2",
						"type": "t_uint256"
					},
					{
						"astId": 21,
						"contract": "test1.sol:Greeter",
						"label": "totalFailedProjects",
						"offset": 0,
						"slot": "3",
						"type": "t_uint256"
					},
					{
						"astId": 23,
						"contract": "test1.sol:Greeter",
						"label": "systemCommission",
						"offset": 0,
						"slot": "4",
						"type": "t_uint256"
					}
				],
				"types": {
					"t_bool": {
						"encoding": "inplace",
						"label": "bool",
						"numberOfBytes": "1"
					},
					"t_mapping(t_uint256,t_struct(Project)10_storage)": {
						"encoding": "mapping",
						"key": "t_uint256",
						"label": "mapping(uint256 => struct Greeter.Project)",
						"numberOfBytes": "32",
						"value": "t_struct(Project)10_storage"
					},
					"t_string_storage": {
						"encoding": "bytes",
						"label": "string",
						"numberOfBytes": "32"
					},
					"t_struct(Project)10_storage": {
						"encoding": "inplace",
						"label": "struct Greeter.Project",
						"members": [
							{
								"astId": 3,
								"contract": "test1.sol:Greeter",
								"label": "name",
								"offset": 0,
								"slot": "0",
								"type": "t_string_storage"
							},
							{
								"astId": 5,
								"contract": "test1.sol:Greeter",
								"label": "deadline",
								"offset": 0,
								"slot": "1",
								"type": "t_uint256"
							},
							{
								"astId": 7,
								"contract": "test1.sol:Greeter",
								"label": "amountRaised",
								"offset": 0,
								"slot": "2",
								"type": "t_uint256"
							},
							{
								"astId": 9,
								"contract": "test1.sol:Greeter",
								"label": "funded",
								"offset": 0,
								"slot": "3",
								"type": "t_bool"
							}
						],
						"numberOfBytes": "128"
					},
					"t_uint256": {
						"encoding": "inplace",
						"label": "uint256",
						"numberOfBytes": "32"
					}
				}
			},
			"userdoc": {
				"kind": "user",
				"methods": {},
				"version": 1
			}
		}
	}
}